:100000000C945D020C944A140C9475140C94A01476
:100010000C94CB140C94F6140C9421150C944C15E0
:100020000C9477150C948E020C948E020C948E0214
:100030000C948E020C944B130C948E020C948E0232
:100040000C948E020C948E020C948E020C948E02F0
:100050000C948E020C948E020C948E020C94941FBD
:100060000C948E020C941B040C9451040C948E027C
:100070000C948E020C948E020C948E020C948E02C0
:100080000C948E020C948E020C948E020C948E02B0
:100090000C9485040C94BB040C948E020C948E0278
:1000A0000C948E020C948E020C948E020C948E0290
:1000B0000C948E020C948E020C948E020C948E0280
:1000C0000C948E020C948E020C948E020C94EF040D
:1000D0000C9425050C948E020C9459050C948F05F4
:1000E0000C948E02FA13C413CC13D813E513061420
:1000F00013143A1430143214341436143C143E14CD
:1001000008210D2112211C2126219F213021382177
:1001100040214A2154215E216D2177219F21812197
:100120008B219521C321C621B521B921BF21FD21F4
:10013000CA21CE21D421D821DC21E221E621EA21E5
:10014000FD21F021F421F8210C9436140C94E621C1
:100150000C946D210C9432140C94EA210C94CE2151
:100160000C94EA240C94F8240C94FA130C94302187
:100170000C94881F0C945E210C943A140C94C305C3
:100180000C941F240C943C140C94B9050C9490020C
:100190000C94CA210C943E140C94E5130C941C038B
:1001A0000C94C4130C9426210C94BF210C944F057D
:1001B0000C948B210C9490240C9430140C941221E8
:1001C0000C94AB130C94F4210C94C6210C9438219C
:1001D0000C94DC210C94E5040C944A210C94E2214B
:1001E0000C9481210C940D210C949C020C944021C0
:1001F0000C947B040C9477210C9406140C94B52178
:100200000C94AA020C94B9210C94CC130C943624AF
:100210000C949F210C9413140C943E030C943414EE
:100220000C9495210C94D4210C94BD240C94D813D7
:100230000C94F0210C94F8210C94D8210C94632494
:100240000C94C3210C9408210C9454210C941C216F
:100250000C94FD210C9447090200000A0B02090CC2
:100260000D0E08070304010000000000000000005C
:10027000000000000000000000000000000000007E
:10028000000000000012111000000000000000003B
:10029000000000000000000000000000000000015D
:1002A0000210202008081020401020408002010287
:1002B000010804020101020408102040808040204F
:1002C000100804020180040201804020100804028A
:1002D0000108040201010204081020408001020408
:1002E00008102040800505050507050808080802D4
:1002F0000202020A0A0808040404040101010101BF
:100300000101010303030303030303040707070CAD
:100310000C0C0C0C0C0C0C02020202060606060663
:100320000606060B0B0B0B0B0B0B0B000020002320
:1003300000260029002C002F0032000001000003DD
:10034000010601090100002200250028002B002ED3
:10035000003100340002010000050108010B01001A
:10036000002100240027002A002D00300033000166
:10037000010000040107010A014E414E494E495453
:1003800059494E46CDCCCC3D0AD7233C17B7D1387E
:1003900077CC2B329595E6241FB14F0A00002041FF
:1003A0000000C84200401C4620BCBE4CCA1B0E5A6E
:1003B000AEC59D7400407A10F35A00A0724E180921
:1003C0000010A5D4E80000E87648170000E40B54BC
:1003D000020000CA9A3B000000E1F505000080968B
:1003E0009800000040420F000000A08601000000BD
:1003F000102700000000E803000000006400000077
:1004000000000A00000000000100000000002C763F
:10041000D888DC674F0823DFC1DFAE59E1B1B7965A
:10042000E5E3E453C63AE651997696E8E6C28426B7
:10043000EB898C9B62ED407C6FFCEFBC9C9F40F293
:10044000BAA56FA5F490055A2AF75C936B6CF9670F
:100450006DC11BFCE0E40D47FEF520E6B500D0EDD4
:10046000902E0300943577050080841E080000203C
:100470004E0A000000C80C333333330F986E1283DA
:100480001141EF8D2114893BE65516CFFEE6DB18AE
:10049000D1844B381BF77C1D901DA4BBE424203273
:1004A00084725E228100C9F124ECA1E53D271F245E
:1004B000362463249024BD24EA2411241FBECFEFE8
:1004C000D1E2DEBFCDBF00E00CBF12E0A0E0B2E0A1
:1004D000E2EBFFE500E00BBF02C007900D92A237F0
:1004E000B107D9F725E0A2E7B2E001C01D92AE3313
:1004F000B207E1F712E0CDE5D2E000E006C02197B7
:100500000109802FFE010E946C25C735D10780E0CC
:100510000807A9F70E9407240C94D72F0C94000019
:10052000FC01918D228D892F90E0805C9F4F821B72
:1005300091098F7399270895FC01918D828D9817E9
:1005400031F0828DE80FF11D858D90E008958FEFD9
:100550009FEF0895FC01918D828D981761F0828D37
:10056000DF01A80FB11D5D968C91928D9F5F9F73E7
:10057000928F90E008958FEF9FEF08958BE794E0BE
:10058000892B41F080E090E0892B21F00E947B04D0
:10059000811125C085EE94E0892B41F080E090E048
:1005A000892B21F00E94E50481111CC08FE495E0A5
:1005B000892B41F080E090E0892B21F00E944F05CB
:1005C000811113C089EB95E0892BA1F080E090E0C8
:1005D000892B81F00E94B90581110AC008950E94FB
:1005E0000000D8CF0E940000E1CF0E940000EACFB7
:1005F0000C9400000895FC01848DDF01A80FB11D4B
:10060000A35ABF4F2C91848D90E001968F73992748
:10061000848FA689B7892C93A089B1898C91806435
:100620008C93938D848D981306C00288F389E02DF6
:1006300080818F7D80830895CF93DF93EC01888D37
:100640008823C9F0EA89FB89808185FD05C0A889D6
:10065000B9898C9186FD0FC00FB607FCF5CF80815C
:1006600085FFF2CFA889B9898C9185FFEDCFCE01A6
:100670000E94FB02E7CFDF91CF910895EF92FF92A6
:100680000F931F93CF93DF93EC0181E0888F9B8DB5
:100690008C8D981305C0E889F989808185FD24C077
:1006A000F62E0B8D10E00F5F1F4F0F731127E02EFA
:1006B0008C8DE8120CC00FB607FCFACFE889F989D7
:1006C000808185FFF5CFCE010E94FB02F1CF8B8D9B
:1006D000FE01E80FF11DE35AFF4FF0820B8FEA890C
:1006E000FB898081806207C0EE89FF896083E88989
:1006F000F98980818064808381E090E0DF91CF91EF
:100700001F910F91FF90EF900895CF92DF92EF929B
:10071000FF921F93CF93DF93EC016A017B01122FAD
:10072000E889F98982E080834115514E61057105A0
:10073000B1F060E079E08DE390E0A70196010E94BE
:100740002B25DA01C9010197A109B109B695A79531
:1007500097958795AC01411580E15807A8F0E88985
:10076000F989108260E874E88EE190E0A7019601B3
:100770000E942B25BA01A901415051096109710953
:100780007695679557954795EC85FD855083EE8561
:10079000FF854083188EEC89FD891083EA89FB89E7
:1007A000808180618083EA89FB8980818860808381
:1007B000EA89FB89808180688083EA89FB8980815E
:1007C0008F7D8083DF91CF911F91FF90EF90DF901D
:1007D000CF900895CF93DF93EC01E881F9810284F3
:1007E000F385E02D1995EA89FB8980818F7E8083CE
:1007F000EA89FB898081877F8083EA89FB89808100
:100800008F778083EA89FB8980818F7D80838A8DC1
:10081000898FDF91CF910895FC01538D448D252F51
:1008200030E0842F90E0821B930B541710F0CF968A
:100830000895019708951F920F920FB60F921124F9
:100840000BB60F922F938F939F93EF93FF93E091AB
:100850009A02F0919B028081E091A002F091A102A6
:1008600082FD12C090818091A3028F5F8F732091CF
:10087000A402821751F0E091A302F0E0E657FD4F89
:10088000958F8093A30201C08081FF91EF919F918A
:100890008F912F910F900BBE0F900FBE0F901F9056
:1008A00018951F920F920FB60F9211240BB60F924C
:1008B0002F933F934F935F936F937F938F939F9368
:1008C000AF93BF93EF93FF938AE892E00E94FB02FD
:1008D000FF91EF91BF91AF919F918F917F916F9118
:1008E0005F914F913F912F910F900BBE0F900FBED4
:1008F0000F901F9018958AE892E00E94900221E0E4
:10090000892B09F420E0822F08951F920F920FB6D1
:100910000F9211240BB60F922F938F939F93EF9307
:10092000FF93E0913703F09138038081E0913D031C
:10093000F0913E0382FD12C09081809140038F5F51
:100940008F7320914103821751F0E0914003F0E052
:10095000E95DFC4F958F8093400301C08081FF913A
:10096000EF919F918F912F910F900BBE0F900FBE23
:100970000F901F9018951F920F920FB60F9211248F
:100980000BB60F922F933F934F935F936F937F9389
:100990008F939F93AF93BF93EF93FF9387E293E07F
:1009A0000E94FB02FF91EF91BF91AF919F918F91B8
:1009B0007F916F915F914F913F912F910F900BBE5F
:1009C0000F900FBE0F901F90189587E293E00E9442
:1009D000900221E0892B09F420E0822F08951F92D4
:1009E0000F920FB60F9211240BB60F922F938F9385
:1009F0009F93EF93FF93E091D403F091D50380810F
:100A0000E091DA03F091DB0382FD12C090818091C6
:100A1000DD038F5F8F732091DE03821751F0E09129
:100A2000DD03F0E0EC53FC4F958F8093DD0301C0B4
:100A30008081FF91EF919F918F912F910F900BBE2D
:100A40000F900FBE0F901F9018951F920F920FB628
:100A50000F9211240BB60F922F933F934F935F93F6
:100A60006F937F938F939F93AF93BF93EF93FF9376
:100A700084EC93E00E94FB02FF91EF91BF91AF9154
:100A80009F918F917F916F915F914F913F912F91A6
:100A90000F900BBE0F900FBE0F901F90189584EC17
:100AA00093E00E94900221E0892B09F420E0822F3C
:100AB00008951F920F920FB60F9211240BB60F924A
:100AC0002F938F939F93EF93FF93E0917104F09195
:100AD00072048081E0917704F091780482FD12C065
:100AE000908180917A048F5F8F7320917B048217AD
:100AF00051F0E0917A04F0E0EF59FB4F958F80932D
:100B00007A0401C08081FF91EF919F918F912F9185
:100B10000F900BBE0F900FBE0F901F9018951F9255
:100B20000F920FB60F9211240BB60F922F933F9393
:100B30004F935F936F937F938F939F93AF93BF93E5
:100B4000EF93FF9381E694E00E94FB02FF91EF9107
:100B5000BF91AF919F918F917F916F915F914F91D5
:100B60003F912F910F900BBE0F900FBE0F901F90D3
:100B7000189581E694E00E94900221E0892B09F407
:100B800020E0822F08958F929F92AF92BF92CF92D2
:100B9000DF92EF92FF920F931F93CF93DF937C012D
:100BA0008B016C0182E0C80ED11C4701E5E08E0E7E
:100BB000911CC0E0D0E0F60161916F014AE050E085
:100BC000C8010E94E50A5C016EE2C8010E94A60904
:100BD0008A0D9B1DC80FD91FC814D90461F74AE0BC
:100BE00050E0F7016581C8010E94E50A8C0F9D1F46
:100BF000DF91CF911F910F91FF90EF90DF90CF90F9
:100C0000BF90AF909F908F90089521E532E0FC0156
:100C100031832083128213821482158208950F93E8
:100C2000FC0181E592E09183808362834383248386
:100C300005830F91089521E532E0FC013183208383
:100C40004283538364837583089521E532E0FC0178
:100C500031832083FB014081518162817381FC01DA
:100C600042835383648375830895DC0190E020E020
:100C700030E08AE0FB014191BF01442309F150EDCE
:100C8000540F5A3088F4829FF001839FF00D112495
:100C90009F0120533109240F311D47FD3A952F3F05
:100CA000310541F338F312C04E3281F4933071F0C4
:100CB000FD01E90FF11D22839F5F20E030E0DACFD4
:100CC000933021F415962C9381E0089580E00895E7
:100CD000FB014081518162817381FC014283538316
:100CE000648375830895FC01428353836483758311
:100CF00008959B01BC016E5F7F4F44E050E0C90145
:100D00000E94B32A21E0892B09F020E0822F089568
:100D10000F93FC01648B458B268B078B0F910895F5
:100D2000CF93DF93EC0160E08E810E943A2281E054
:100D300090E00E944A2061E08E810E943A2281E088
:100D400090E00E944A2060E08E810E943A2284E670
:100D500090E0DF91CF910C944A20CF92DF92EF92F6
:100D6000FF920F931F93CF93DF937C016C0187E079
:100D7000C80ED11CC0E0D0E0062F10E0B8010C2E48
:100D800002C0759567950A94E2F76170F60181914A
:100D90006F010E943A222196C430D10579F7C7012C
:100DA000DF91CF911F910F91FF90EF90DF90CF9047
:100DB0000C949006CF92DF92EF92FF920F931F93C5
:100DC000CF93DF937C016C0187E0C80ED11CC0E09B
:100DD000D0E0062F10E0B8010C2E02C07595679583
:100DE0000A94E2F76170F60181916F010E943A2244
:100DF0002196C830D10579F7C701DF91CF911F91B6
:100E00000F91FF90EF90DF90CF900C9490061F937E
:100E1000CF93DF93EC01162F642F8C810E943A222E
:100E20008D818F3F19F060E00E943A228F85612FFB
:100E300084FF06C0CE01DF91CF911F910C94DA069A
:100E400070E084E0759567958A95E1F7CE010E9480
:100E5000AD06612FCE01DF91CF911F910C94AD06AD
:100E600061E00E94F52480ED97E00C944A2062E056
:100E70000E94F52480ED97E00C944A20FC01443058
:100E800008F043E08389481710F04FEF480FDF0167
:100E9000A40FB11D54969C91690F6068CF010C940A
:100EA000F524FC0160896B7F608B68600C94F524ED
:100EB000FC016089262F2460208B6C600C94F52443
:100EC000EF92FF920F931F93CF93DF93EC01423089
:100ED00018F08F8588608F874B8B1C8A80E48D8B00
:100EE0006E8B70E0605C7F4F6F8B222329F0413066
:100EF00019F48F8584608F8761E08C810E94FE21C8
:100F00008D818F3F19F061E00E94FE2161E08E81AA
:100F10000E94FE217E0187E0E80EF11C00E010E057
:100F20008F8584FD03C084E090E002C088E090E0FB
:100F3000081719074CF461E0F70181917F010E94C5
:100F4000FE210F5F1F4FECCF80E593EC0E944A20FB
:100F500060E08C810E943A2260E08E810E943A22F9
:100F60008D818F3F19F060E00E943A226F8564FD09
:100F70001DC063E0CE010E94AD0684E991E10E94AC
:100F80004A2063E0CE010E94AD0684E991E10E940F
:100F90004A2063E0CE010E94AD0686E990E00E94FF
:100FA0004A2062E0CE010E94AD0616C06062CE010A
:100FB0000E94F52484E991E10E944A206F856062D5
:100FC000CE010E94F52486E990E00E944A206F85B8
:100FD0006062CE010E94F5246F856062CE010E949E
:100FE000F52484E0888BCE010E945807CE010E9430
:100FF000300782E0898B66E0CE01DF91CF911F91AF
:101000000F91FF90EF900C94F5248F92AF92CF92B6
:10101000EF920F93CF93DF93CDB7DEB7FC015B85E3
:101020003C859D858E85448325830683E782C08623
:10103000A18682865387348795878687662311F039
:10104000178602C080E1878720E041E060E1CF01A0
:10105000DF91CF910F91EF90CF90AF908F900C9444
:1010600060078F92AF92CF92EF920F93CF93DF935F
:10107000CDB7DEB7FC013B859C858D85138212823E
:10108000A7E5B2E0B183A083648345832683078309
:10109000E086C186A286838634879587868780E12D
:1010A000878720E041E060E1CF01DF91CF910F9190
:1010B000EF90CF90AF908F900C9460078F92AF928B
:1010C000CF92EF920F93CF93DF93CDB7DEB7FC01B2
:1010D0009B858C8513821282A7E5B2E0B183A08341
:1010E00064833FEF3583468327830087E186C2868A
:1010F000A38684869587868780E1878720E041E004
:1011000060E1CF01DF91CF910F91EF90CF90AF9041
:101110008F900C946007AF92CF92EF920F93FC01E7
:101120001382128287E592E09183808364834583F2
:1011300026830783E086C186A286138614861586D9
:101140001686178620E041E060E1CF010F91EF9015
:10115000CF90AF900C946007CF92EF920F93FC0169
:101160001382128287E592E09183808364838FEFFC
:101170008583468327830087E186C286138614868B
:1011800015861686178620E041E060E1CF010F91B9
:10119000EF90CF900C946007FC0160896D7F608BAD
:1011A00068600C94F524FC016089262F2260208B56
:1011B0006A600C94F524FC0160896E7F608B686026
:1011C0000C94F524FC016089262F2160208B696036
:1011D0000C94F52468E10C94F5246CE10C94F5244E
:1011E000FC016189262F2260218B66600C94F52416
:1011F000FC0161896D7F618B64600C94F524FC01B6
:101200006189262F2160218B65600C94F524FC01F7
:1012100061896E7F618B64600C94F524CF92DF92BC
:10122000EF92FF920F931F93CF93DF931F921F9222
:10123000CDB7DEB78C01677088E0689FB0011124DC
:101240006064C80149835A830E94F5244981C42EF1
:101250005A81D52E7601A8E0EA0EF11CF6016191C3
:101260006F01D801ED91FC910190F081E02DC80152
:101270001995CE14DF0491F70F900F90DF91CF9165
:101280001F910F91FF90EF90DF90CF900895CF9234
:10129000DF92EF92FF920F931F93CF93DF936C0136
:1012A0007A018B01C0E0D0E0CE15DF0589F0D801CE
:1012B0006D918D01D601ED91FC910190F081E02DB1
:1012C000C6011995892B11F47E0102C02196ECCF3D
:1012D000C701DF91CF911F910F91FF90EF90DF90A9
:1012E000CF900895EF92FF920F931F93CF93DF93C8
:1012F0008C017B01C0E0D0E0F701EC0FFD1F649191
:10130000662361F0D801ED91FC910190F081E02D10
:10131000C8011995892B11F02196EECFCE01DF91EE
:10132000CF911F910F91FF90EF900895DC01ED9107
:10133000FC91DB0114964D915C9115976D917C9118
:101340000280F381E02D19940C94FE24DC01ED91D0
:10135000FC910190F081E02D1994DB01ED91FC915D
:1013600011970190F081E02DBC01CD0119946BE53E
:1013700072E00C94FE240F931F93CF93DF93EC0144
:101380000E9472098C01CE010E94B709800F911F43
:10139000DF91CF911F910F9108950F931F93CF93DA
:1013A000DF93EC010E9496098C01CE010E94B709DF
:1013B000800F911FDF91CF911F910F9108950F938F
:1013C0001F93CF93DF93EC010E94FE248C01CE018A
:1013D0000E94B709800F911FDF91CF911F910F914C
:1013E00008950F931F93CF93DF93EC010E94A609FA
:1013F0008C01CE010E94B709800F911FDF91CF9120
:101400001F910F9108950F931F93CF93DF93EC01DA
:101410000E94AD098C01CE010E94B709800F911F77
:10142000DF91CF911F910F9108954F925F926F922C
:101430007F92EF92FF920F931F93CF93DF93CDB7DD
:10144000DEB7A1970FB6F894DEBF0FBECDBF7C010B
:10145000FA01CB0119A2223008F42AE08E010F5DB7
:101460001F4F422E512C612C712CBF01A301920100
:101470000E942B25F901CA01015011096A3014F4A8
:10148000605D01C0695CD8016C93232B242B252B54
:1014900061F7B801C7010E94FE24A1960FB6F89427
:1014A000DEBF0FBECDBFDF91CF911F910F91FF9097
:1014B000EF907F906F905F904F900895CF92DF9262
:1014C000EF92FF920F931F93CF93DF93EC016A018A
:1014D0007B012115310579F4E881F9810190F081D2
:1014E000E02D642FDF91CF911F910F91FF90EF902E
:1014F000DF90CF9019942A303105E9F477FF1AC0B4
:101500006DE20E94A6098C0144275527BA014C19A7
:101510005D096E097F092AE0CE010E94150A800F3D
:10152000911FDF91CF911F910F91FF90EF90DF906E
:10153000CF9008952AE0B701A601CE01DF91CF91A7
:101540001F910F91FF90EF90DF90CF900C94150AB0
:101550009A01AB01770F660B770B0C945E0A0F9321
:101560001F93CF93DF93EC019A01AB01770F660BCA
:10157000770B0E945E0A8C01CE010E94B709800F92
:10158000911FDF91CF911F910F9108950F931F939A
:10159000CF93DF93EC010E945E0A8C01CE010E9482
:1015A000B709800F911FDF91CF911F910F9108957F
:1015B0002115310541F4DC01ED91FC910190F081A0
:1015C000E02D642F19940C94150A9A01462F50E0CF
:1015D00060E070E00C94D80A0F931F93CF93DF93D1
:1015E000EC019A01462F50E060E070E00E94D80ABA
:1015F0008C01CE010E94B709800F911FDF91CF911E
:101600001F910F9108959A01AB0160E070E00C9476
:10161000D80A0F931F93CF93DF93EC019A01AB018C
:1016200060E070E00E94D80A8C01CE010E94B709E8
:10163000800F911FDF91CF911F910F9108950F930C
:101640001F93CF93DF93EC010E94D80A8C01CE0147
:101650000E94B709800F911FDF91CF911F910F91C9
:1016600008954F925F926F927F928F929F92AF9266
:10167000BF92CF92DF92EF92FF92CF93DF93EC0174
:101680006A017B01B22E9A01AB01C701B6010E942B
:10169000C527882319F06EE572E027C026013701BF
:1016A000E89477F82FEF3FEF4FE75FE7C301B20110
:1016B0000E94C52781110DC02FEF3FEF4FE75FE775
:1016C000C301B2010E94FB2518161CF462E672E009
:1016D0000CC02FEF3FEF4FE75FE4C701B6010E9458
:1016E000532718169CF466E672E0CE01DF91CF9185
:1016F000FF90EF90DF90CF90BF90AF909F908F9032
:101700007F906F905F904F900C94FE242FEF3FEFEF
:101710004FE75FECC701B6010E94FB2587FDE3CFD1
:1017200020E030E0A901C701B6010E94FB2587FF38
:101730000AC06DE2CE010E94A6094C01F7FAF094AE
:10174000F7F8F09402C0812C912CA12C60E070E09D
:1017500080E09FE3AB1441F020E030E040E251E450
:101760000E940026A394F6CF9B01AC01C701B601ED
:101770000E948F252B013C010E9472266B017C0187
:101780000E94A1269B01AC01C301B2010E948E25DB
:101790002B013C012AE0B701A601CE010E94150AE7
:1017A0007C01E80CF91CBB2031F06EE2CE010E94F6
:1017B000A609E80EF91EDB2CDD2029F120E030E03F
:1017C00040E251E4C301B2010E9458272B013C01C1
:1017D0000E9472264B01A12CB12C2AE0B501A40174
:1017E000CE010E94150AE80EF91EC501B4010E943F
:1017F000A1269B01AC01C301B2010E948E252B01E1
:101800003C01DA94D9CFC701DF91CF91FF90EF90DF
:10181000DF90CF90BF90AF909F908F907F906F9010
:101820005F904F9008950C94310B0F931F93CF93BB
:10183000DF93EC010E94310B8C01CE010E94B709AD
:10184000800F911FDF91CF911F910F9108950F93FA
:101850001F93CF93DF93EC010E94DE1F6887798787
:101860008A879B87E881F9810680F781E02DCE0188
:10187000199597FF17C00E94DE1F088519852A85D4
:101880003B85DC01CB01801B910BA20BB30B0C81C0
:101890001D812E813F8180179107A207B30710F3A6
:1018A0008FEF9FEFDF91CF911F910F9108950F93CD
:1018B0001F93CF93DF93EC010E94DE1F6887798727
:1018C0008A879B87E881F9810084F185E02DCE012C
:1018D000199597FF17C00E94DE1F088519852A8574
:1018E0003B85DC01CB01801B910BA20BB30B0C8160
:1018F0001D812E813F8180179107A207B30710F346
:101900008FEF9FEFDF91CF911F910F910895FF927D
:101910000F931F93CF93DF93EC018B01F42ECE0135
:101920000E94570C9C0197FD0BC08D32910541F030
:10193000C0970A9728F0FF2029F02E32310511F4C4
:10194000C9011DC001301105C1F00230110569F453
:101950002D30310551F034F4295031092230310550
:1019600020F00BC02032310541F4E881F981068076
:10197000F781E02DCE011995D2CF8FEF9FEFDF9148
:10198000CF911F910F91FF900895FC0144835583DF
:101990006683778308958F929F92AF92BF92CF9282
:1019A000DF92FF920F931F93CF93DF9300D01F928C
:1019B000CDB7DEB78C01B42E40E00E94870CFC014D
:1019C00097FD4CC020E030E0A901F12CCB2CBB0CE2
:1019D000DD08EC15FD05F1F0ED32F105C9F0CF01A0
:1019E000C0970A97B8F4AAE0B0E00E9474254F01AE
:1019F000FF0FAA08BB08DC01CB01880D991DAA1DA9
:101A0000BB1D9C01AD01205331094109510902C0A0
:101A1000FF24F394D801ED91FC910680F781E02D2D
:101A2000C80129833A834B835C831995C8010E94BE
:101A3000570CFC01C09729813A814B815C810A9740
:101A400040F2EC15FD0529F2FF2061F066277727AB
:101A5000CB01621B730B840B950B06C060E070E03A
:101A6000CB0102C0CA01B9010F900F900F900F90E7
:101A7000DF91CF911F910F91FF90DF90CF90BF909A
:101A8000AF909F908F9008954F925F926F927F9248
:101A9000AF92BF92CF92DF92EF92FF920F931F937C
:101AA000CF93DF935C01042F41E00E94870CFC017F
:101AB00097FD6EC0412C512C80E8682E8FE3782E64
:101AC000C12CD12C7601C0E0D0E0002E000C110B0F
:101AD000E017F10769F1ED32F10539F1EE32F10568
:101AE00031F1CF01C0970A9718F5AAE0B0E0A7013D
:101AF00096010E9474256F01FF0FEE08FF08C60EC5
:101B0000D71EE81EF91E80E3C81AD108E108F108C3
:101B1000CC2371F02DEC3CEC4CEC5DE3C301B20145
:101B20000E9458272B013C0103C0D1E001C0C1E055
:101B3000D501ED91FC910680F781E02DC501199545
:101B4000C5010E94570CFC01C0970A9708F2EE32BB
:101B5000F10519F4CC2309F4BBCFE017F10709F420
:101B6000B7CFC701B601DD2339F090958095709508
:101B700061957F4F8F4F9F4FCC2339F00E94A32652
:101B8000A30192010E94582706C00E94A32603C009
:101B900060E070E0CB01DF91CF911F910F91FF903A
:101BA000EF90DF90CF90BF90AF907F906F905F905D
:101BB0004F900895CF92DF92EF92FF920F931F9371
:101BC000CF93DF936C017A018B01C0E0D0E0CE159A
:101BD000DF0561F0C6010E94270C97FF02C07E015D
:101BE00005C0F80181938F012196F1CFC701DF91E4
:101BF000CF911F910F91FF90EF90DF90CF900895BC
:101C0000AF92BF92CF92DF92EF92FF920F931F930A
:101C1000CF93DF9321153105D1F079015C016A0181
:101C2000C0E0D0E0062F660F110BC5010E94270C03
:101C300097FF02C0CE010DC080179107D9F3F601BE
:101C400081936F012196CE15DF0579F7F3CF80E000
:101C500090E0DF91CF911F910F91FF90EF90DF9077
:101C6000CF90BF90AF9008950F931F93CF93DF93C2
:101C7000EC018B016DE572E00E94A516C8010E947F
:101C8000270C97FD05C0682FCE010E94D918F6CF0A
:101C9000CE01DF91CF911F910F910895EF92FF92A6
:101CA0000F931F93CF93DF93EC017B01042F6DE51E
:101CB00072E00E94A516C7010E94270C002E000C9E
:101CC000110B97FD0BC08017910741F0682FCE01D3
:101CD0000E94D918C7010E94270CF3CFCE01DF91D3
:101CE000CF911F910F91FF90EF9008954F925F92C7
:101CF0006F927F928F929F92AF92BF92CF92DF921C
:101D0000EF92FF920F931F93CF93DF938C01EB0120
:101D100086E0849F4001859F900C1124860E971EBB
:101D2000FB01E815F90508F582819381892B21F1E2
:101D30003696F7CF6081718144815581DB01A40F14
:101D4000B51F2C91022E000C330B8217930711F54F
:101D50004F5F5F4F5583448322813381421753077E
:101D600059F03696E815F90528F3C8010E94270CAA
:101D700097FD46C0FE01F6CFEC1BFD0BF595E795F0
:101D80002BEA3AEAE29FC001E39F900DF29F900D8B
:101D9000112438C04115510521F3C480D580960126
:101DA0002150310935832483DB01A20FB31FAC918D
:101DB0000A2E000CBB0B8A179B07F9F4211531057D
:101DC000C9F05B017A01E21AF30AE60EF71E412C14
:101DD000512CD5016D905D01D7017D907D0167107B
:101DE00006C0BFEF4B1A5B0A4216530690F3421629
:101DF000530699F6D582C482B4CF232B71F6B1CFA6
:101E00008FEF9FEFDF91CF911F910F91FF90EF9098
:101E1000DF90CF90BF90AF909F908F907F906F900A
:101E20005F904F900895CF93DF9300D000D0CDB74F
:101E3000DEB7FE01319626E0DF011D922A95E9F713
:101E40007A8369835C834B8341E050E0BF010E9449
:101E5000760E21E0892B09F020E0822F26960FB61E
:101E6000F894DEBF0FBECDBFDF91CF9108950C94E3
:101E7000130FFB0101900020E9F73197AF01461BDA
:101E8000570B0C94130FFF920F931F93CF93DF9375
:101E9000CDB7DEB72C970FB6F894DEBF0FBECDBF1F
:101EA0002115310521F40E94130F282F19C0FE01BE
:101EB0003196ACE0FA2EDF011D92FA94E9F77A83AD
:101EC00069835C834B8338872F831A87098742E0B5
:101ED00050E0BF010E94760E21E0892B09F020E03E
:101EE000822F2C960FB6F894DEBF0FBECDBFDF91C8
:101EF000CF911F910F91FF9008950F931F939A0117
:101F0000FA0101900020E9F731978F01041B150BAE
:101F1000FB0101900020E9F73197AF01461B570BF9
:101F20000E94430F1F910F9108953F924F925F922D
:101F30006F927F928F929F92AF92BF92CF92DF92D9
:101F4000EF92FF920F931F93CF93DF9300D01F92D6
:101F5000CDB7DEB729013A0190910002981721F020
:101F60009F3F09F032C304C0E8E5F2E0349004C1B9
:101F700080930002E8E5F2E0E491EF3F09F425C325
:101F8000E23009F480C074F5EE2309F45BC0E1305F
:101F900009F0F1C0109280001092810090918100B0
:101FA000986090938100909181009160909381005E
:101FB000282F30E0F901EB51FD4FE491F0E0EE0FF6
:101FC000FF1FEB5BFC4F45915491509322054093CA
:101FD0002105F901E156FD4FE491E09320053324FA
:101FE0003394CCC0E43009F49EC00CF474C0E530E6
:101FF00009F0C1C01092200110922101909121019D
:10200000986090932101909121019160909321011A
:10201000482F50E0FA01EB51FD4FE491F0E0EE0F54
:10202000FF1FEB5BFC4F2591349130930605209305
:102030000505FA01E156FD4FE491E0930405B5E092
:102040003B2E9CC014BC15BC94B5926094BD95B554
:10205000916095BD282F30E0F901EB51FD4FE491DF
:10206000F0E0EE0FFF1FEB5BFC4F45915491509356
:10207000290540932805F901E156FD4FE491E093CD
:102080002705312C7BC01092B0001092B1009091C6
:10209000B00092609093B0009091B10091609093E5
:1020A000B100282F30E0F901EB51FD4FE491F0E051
:1020B000EE0FFF1FEB5BFC4F4591549150931B05B6
:1020C00040931A05F901E156FD4FE491E09319059B
:1020D00052E0352E53C010929000109291009091D2
:1020E00091009860909391009091910091609093ED
:1020F0009100282F30E0F901EB51FD4FE491F0E021
:10210000EE0FFF1FEB5BFC4F45915491509314056C
:1021100040931305F901E156FD4FE491E093120558
:1021200023E0322E2BC01092A0001092A1009091BB
:10213000A10098609093A1009091A100916090936C
:10214000A100282F30E0F901EB51FD4FE491F0E0C0
:10215000EE0FFF1FEB5BFC4F4591549150930D0523
:1021600040930C05F901E156FD4FE491E0930B0516
:1021700004E0302E03C03E2E37FC27C28B0161E005
:102180000E94FE214801A12CB12C832D8D7F09F0E6
:10219000BBC060E072E18AE790E0A50194010E9473
:1021A0004D2529833A834B835C8369017A0121E0C1
:1021B000C21AD108E108F1088FEFC816D104E10472
:1021C000F10409F008F44CC060E472E48FE090E0A0
:1021D000A50194010E944D2569017A0191E0C91A77
:1021E000D108E108F108E2E03E1220C0FFEFCF166F
:1021F000D104E104F10409F008F4E5C160E970EDEF
:1022000083E090E0A50194010E944D2569017A01C7
:1022100081E0C81AD108E108F1089FEFC916D1047E
:10222000E104F10409F0D0F583E067C0EFEFCE16CA
:10223000D104E104F104B1F0A8F068E478EE81E0A3
:1022400090E0A50194010E944D2569017A01F1E019
:10225000CF1AD108E108F108332009F45AC1AAC104
:1022600081E001C082E03320A1F047C089819A81DA
:10227000AB81BC812AE0B595A795979587952A955E
:10228000D1F76C017D01F1E0CF1AD108E108F10826
:1022900085E095B5987F892B85BDA6C068E478EE6A
:1022A00081E090E0A50194010E944D2569017A0129
:1022B00081E0C81AD108E108F1089FEFC916D104DE
:1022C000E104F10409F008F422C164E274EF80E053
:1022D00090E0A50194010E944D2569017A0181E0F9
:1022E000C81AD108E108F1089FEFC916D104E1042A
:1022F000F10411F008F02FC185E09091B100987FB2
:10230000892B8093B10070C060E072E18AE790E0B1
:10231000A50194010E944D2569017A01F1E0CF1ACF
:10232000D108E108F108C114D10421E0E206F1046A
:1023300088F068E478EE81E090E0A50194010E94C5
:102340004D2569017A0181E0C81AD108E108F10838
:1023500083E001C081E091E0391210C090918100CA
:10236000987F892B8093810041145104610471048A
:1023700009F03FC02FEF3FEFA90171C0E3E03E122B
:102380000FC090919100987F892B80939100411408
:1023900051046104710469F52FEF3FEFA90181C079
:1023A000F4E03F120FC09091A100987F892B809399
:1023B000A1004114510461047104D9F42FEF3FEFDF
:1023C000A90181C025E032120FC090912101987FB0
:1023D000892B80932101411451046104710449F453
:1023E0002FEF3FEFA90181C0411451046104710432
:1023F00071F0D801AA0FBB1FA30192010E9474259E
:1024000028EE33E040E050E00E942B2503C02FEF80
:102410003FEFA90182E03816A1F1831534F0332093
:1024200079F091E03916D9F0D0C0E4E03E1609F415
:102430004AC03E16B4F1F5E03F1609F456C0C5C0D7
:10244000C7BC20932A0530932B0540932C0550934D
:102450002D0580916E00826080936E00B6C0D09290
:102460008900C0928800209323053093240540936F
:1024700025055093260580916F00826080936F0040
:10248000A4C0C092B30020931C0530931D05409357
:102490001E0550931F05809170008260809370002C
:1024A00094C0D0929900C092980020931505309363
:1024B00016054093170550931805809171008260AE
:1024C0008093710082C0D092A900C092A80020938E
:1024D0000E0530930F054093100550931105809120
:1024E000720082608093720070C0D0922901C09205
:1024F0002801209307053093080540930905509360
:102500000A05809173008260809373005EC084E04E
:10251000F4CE2FEFC216D104E104F104D1F0C8F0DB
:1025200062E17AE780E090E0A50194010E944D25E8
:1025300069017A01E1E0CE1AD108E108F108FFEF64
:10254000CF16D104E104F10411F008F08FCE84E03D
:10255000A0CE83E09ECE62E17AE780E090E0A50124
:1025600094010E944D2569017A0181E0C81AD108C1
:10257000E108F1089FEFC916D104E104F104C1F0AC
:10258000B8F089819A81AB81BC814AE0B595A79565
:10259000979587954A95D1F76C017D01E1E0CE1AB8
:1025A000D108E108F108332009F472CE87E0A5CE06
:1025B00086E059CEEFEFCE16D104E104F10409F024
:1025C00050F684E050CE82E098CE0F900F900F909E
:1025D0000F90DF91CF911F910F91FF90EF90DF90BF
:1025E000CF90BF90AF909F908F907F906F905F90B3
:1025F0004F903F9008958230A9F028F4882349F045
:10260000813051F00895843021F1E8F0853039F1BE
:10261000089510926E00089580916F008D7F8093D1
:102620006F000895809170008D7F8093700081E02D
:102630008093B0008091B100887F84608093B10066
:102640001092B3000895809171008D7F8093710086
:102650000895809172008D7F80937200089580911B
:1026600073008D7F809373000895CF93C82F80915E
:1026700000028C1307C0E8E5F2E0E4918FEF80934D
:10268000000201C0EFEF8E2F0E94FB1260E08C2F42
:10269000CF910C943A221F920F920FB60F921124F1
:1026A0000BB60F922F933F934F935F936F937F934C
:1026B0008F939F93AF93BF93EF93FF9380911C05EC
:1026C00090911D05A0911E05B0911F05892B8A2BA5
:1026D0008B2B51F180911905E0911A05F0911B05A2
:1026E00090818927808380911C0590911D05A09180
:1026F0001E05B0911F05181619061A061B06C4F40C
:1027000080911C0590911D05A0911E05B0911F059B
:102710000197A109B10980931C0590931D05A09311
:102720001E05B0931F0504C0809100020E9435135E
:10273000FF91EF91BF91AF919F918F917F916F9199
:102740005F914F913F912F910F900BBE0F900FBE55
:102750000F901F9018950895883008F070C0A82F2A
:10276000B0E0AA0FBB1FAF5FBD4F11967C936E9375
:1027700090E0FC013197E730F105A0F58827EE588D
:10278000FF4F8F4F0C946C25809169008C7F482BF4
:1027900040936900E89A089580916900440F551F9D
:1027A000440F551F837F482B40936900E99A089591
:1027B0008091690074E0440F551F7A95E1F78F7C92
:1027C000482B40936900EA9A08958091690066E079
:1027D000440F551F6A95E1F78F73482B40936900AA
:1027E000EB9A089580916A008C7F482B40936A0091
:1027F000EC9A089580916A00440F551F440F551FAD
:10280000837F482B40936A00ED9A089580916A0077
:1028100024E0440F551F2A95E1F78F7C482B409305
:102820006A00EE9A089580916A0096E0440F551F61
:102830009A95E1F78F73482B40936A00EF9A0895B9
:10284000982F883030F5482F50E0FA013197E73063
:10285000F10570F48827E758FF4F8F4F0C946C25D3
:10286000E8980DC0E9980BC0EA9809C0EB9807C03A
:10287000EC9805C0ED9803C0EE9801C0EF98E92FE1
:10288000F0E0EE0FFF1FEF5FFD4F8BEA93E19183C6
:10289000808308951F920F920FB60F9211240BB6EA
:1028A0000F922F933F934F935F936F937F938F93E9
:1028B0009F93AF93BF93EF93FF93E0910502F09145
:1028C00006021995FF91EF91BF91AF919F918F9162
:1028D0007F916F915F914F913F912F910F900BBE20
:1028E0000F900FBE0F901F9018951F920F920FB66A
:1028F0000F9211240BB60F922F933F934F935F9338
:102900006F937F938F939F93AF93BF93EF93FF93B7
:10291000E0910702F09108021995FF91EF91BF91A4
:10292000AF919F918F917F916F915F914F913F9167
:102930002F910F900BBE0F900FBE0F901F90189508
:102940001F920F920FB60F9211240BB60F922F9376
:102950003F934F935F936F937F938F939F93AF9327
:10296000BF93EF93FF93E0910902F0910A0219954A
:10297000FF91EF91BF91AF919F918F917F916F9157
:102980005F914F913F912F910F900BBE0F900FBE13
:102990000F901F9018951F920F920FB60F9211244F
:1029A0000BB60F922F933F934F935F936F937F9349
:1029B0008F939F93AF93BF93EF93FF93E0910B029D
:1029C000F0910C021995FF91EF91BF91AF919F91FA
:1029D0008F917F916F915F914F913F912F910F90C8
:1029E0000BBE0F900FBE0F901F9018951F920F9265
:1029F0000FB60F9211240BB60F922F933F934F9364
:102A00005F936F937F938F939F93AF93BF93EF9356
:102A1000FF93E0910102F09102021995FF91EF916D
:102A2000BF91AF919F918F917F916F915F914F91E6
:102A30003F912F910F900BBE0F900FBE0F901F90E4
:102A400018951F920F920FB60F9211240BB60F928A
:102A50002F933F934F935F936F937F938F939F93A6
:102A6000AF93BF93EF93FF93E0910302F0910402C1
:102A70001995FF91EF91BF91AF919F918F917F91A8
:102A80006F915F914F913F912F910F900BBE0F90DF
:102A90000FBE0F901F9018951F920F920FB60F92B6
:102AA00011240BB60F922F933F934F935F936F9325
:102AB0007F938F939F93AF93BF93EF93FF93E09197
:102AC0000D02F0910E021995FF91EF91BF91AF9118
:102AD0009F918F917F916F915F914F913F912F9136
:102AE0000F900BBE0F900FBE0F901F9018951F9266
:102AF0000F920FB60F9211240BB60F922F933F93A4
:102B00004F935F936F937F938F939F93AF93BF93F5
:102B1000EF93FF93E0910F02F09110021995FF914E
:102B2000EF91BF91AF919F918F917F916F915F9145
:102B30004F913F912F910F900BBE0F900FBE0F90B2
:102B40001F901895611571058105910511F00C9480
:102B500068290895CF93DF9300D01F92CDB7DEB7D9
:102B6000611571058105910579F09B01AC016983BF
:102B70003A834B835C830E94642929813A814B818B
:102B80005C810E944D2503C060E070E0CB010F9096
:102B90000F900F900F90DF91CF910895CF92DF9219
:102BA000EF92FF920F931F936217730784079507A5
:102BB00084F489019A016B017C01C901B8016C1987
:102BC0007D098E099F090E94AA156C0D7D1D8E1D21
:102BD0009F1D1F910F91FF90EF90DF90CF90089570
:102BE0004F925F926F927F92AF92BF92CF92DF929D
:102BF000EF92FF920F931F93CF93DF93CDB7DEB782
:102C000029013A019B01AC012419350946095709EC
:102C10008A899B89AC89BD89BC01CD016A197B0970
:102C20008C099D090E941B25A801970124193509CB
:102C3000460957090E944D25CA01B9016A0D7B1D3D
:102C40008C1D9D1DDF91CF911F910F91FF90EF90F3
:102C5000DF90CF90BF90AF907F906F905F904F903C
:102C60000895089570E09B01382BC9010895FC0177
:102C7000808191810C947F28CF93DF93EC01888130
:102C80009981009711F00E947F28198218821D8275
:102C90001C821B821A82DF91CF9108950F931F939C
:102CA000CF93DF93EC018B016F5F7F4F8881998118
:102CB0000E947129009731F0998388831B830A83CE
:102CC00081E001C080E0DF91CF911F910F910895C5
:102CD000CF93DF93EC0188819981892B29F08A8138
:102CE0009B818617970760F4CE010E944E168823B9
:102CF00041F08C819D81892B19F4E881F981108242
:102D000081E0DF91CF910895EF92FF920F931F938F
:102D1000CF93DF93EC017B018A01BA010E94681610
:102D2000811104C0CE010E943C1607C01D830C8394
:102D3000B701888199810E94EF2ACE01DF91CF915E
:102D40001F910F91FF90EF900895FC011182108266
:102D500013821282158214826115710551F0FB01F4
:102D600001900020E9F73197AF01461B570B0C94F7
:102D700084160895EF92FF920F931F93CF93DF93E2
:102D8000EC017B018A01BA010E946816811104C01E
:102D9000CE010E943C1607C01D830C83B7018881B9
:102DA00099810E94A32ACE01DF91CF911F910F91AB
:102DB000FF90EF900895CF93DF93EC01FB0186170E
:102DC000970761F0608171816115710529F0448177
:102DD00055810E94841602C00E943C16CE01DF91EC
:102DE000CF910895FC011182108213821282158204
:102DF00014820C94DB16CF93DF93EC0161157105FF
:102E000059F0FB0101900020E9F73197AF01461B13
:102E1000570B0E94841602C00E943C16CE01DF911F
:102E2000CF910895CF93DF931F921F92CDB7DEB756
:102E3000FC0111821082138212821582148269832E
:102E40001A82BE016F5F7F4F0E94FB160F900F909A
:102E5000DF91CF9108950F931F93CF93DF93CDB759
:102E6000DEB729970FB6F894DEBF0FBECDBF8C0139
:102E7000862FF80111821082138212821582148229
:102E800050E0BE016F5F7F4F90E00E94AA2BBE0111
:102E90006F5F7F4FC8010E94FB1629960FB6F8940A
:102EA000DEBF0FBECDBFDF91CF911F910F9108956F
:102EB0000F931F93CF93DF93CDB7DEB762970FB613
:102EC000F894DEBF0FBECDBF8C01CB01F80111829B
:102ED0001082138212821582148250E0BE016F5F4D
:102EE0007F4F0E94382BBE016F5F7F4FC8010E9449
:102EF000FB1662960FB6F894DEBF0FBECDBFDF9112
:102F0000CF911F910F9108950F931F93CF93DF934C
:102F1000CDB7DEB761970FB6F894DEBF0FBECDBF59
:102F20008C01CB01F801118210821382128215826A
:102F3000148250E0BE016F5F7F4F0E94AA2BBE013A
:102F40006F5F7F4FC8010E94FB1661960FB6F89421
:102F5000DEBF0FBECDBFDF91CF911F910F910895BE
:102F60000F931F93CF93DF93CDB7DEB7A2970FB622
:102F7000F894DEBF0FBECDBF8C01CB01BA01F801C2
:102F800011821082138212821582148230E0AE0107
:102F90004F5F5F4F0E944E2BBE016F5F7F4FC80196
:102FA0000E94FB16A2960FB6F894DEBF0FBECDBFEF
:102FB000DF91CF911F910F9108950F931F93CF939E
:102FC000DF93CDB7DEB7A1970FB6F894DEBF0FBE83
:102FD000CDBF8C01CB01BA01F8011182108213829E
:102FE00012821582148230E0AE014F5F5F4F0E9463
:102FF0007D2BBE016F5F7F4FC8010E94FB16A1961B
:103000000FB6F894DEBF0FBECDBFDF91CF911F91F9
:103010000F910895EF92FF920F931F93CF93DF9339
:10302000CDB7DEB7A1970FB6F894DEBF0FBECDBF08
:103030007C01CB01BA01F701118210821382128246
:103040001582148242E0420F8E010F5F1F4F0E94D3
:10305000CA27BC01C7010E94FB16A1960FB6F894BF
:10306000DEBF0FBECDBFDF91CF911F910F91FF90BB
:10307000EF900895EF92FF920F931F93CF93DF93FA
:10308000CDB7DEB7A1970FB6F894DEBF0FBECDBFA8
:103090007C01CB01BA01F7011182108213821282E6
:1030A0001582148242E0420F8E010F5F1F4F0E9473
:1030B000CA27BC01C7010E94FB16A1960FB6F8945F
:1030C000DEBF0FBECDBFDF91CF911F910F91FF905B
:1030D000EF9008950F931F93CF93DF931F921F924A
:1030E000CDB7DEB78C016115710561F0CB01698345
:1030F0007A830E94AA2AAC0169817A81C8010E9460
:10310000BA1602C00E943C16C8010F900F90DF91C2
:10311000CF911F910F910895FC01118210821382AB
:103120001282158214820C946A18EF92FF920F9308
:103130001F93CF93DF93FC012481358161157105C5
:1031400011F480E019C041155105A9F07B01EC0193
:103150008A01020F131FB8010E946816882389F3A1
:10316000288139818C819D81B701820F931F0E9434
:10317000EF2A1D830C8381E0DF91CF911F910F9186
:10318000FF90EF900895FB0144815581608171812A
:103190000C9495186115710551F0FB010190002008
:1031A000E9F73197AF01461B570B0C94951880E057
:1031B0000895CF93DF931F921F92CDB7DEB7698337
:1031C0001A8241E050E0BE016F5F7F4F0E94951868
:1031D0000F900F90DF91CF910895EF92FF920F9390
:1031E0001F93CF93DF9300D01F92CDB7DEB77C0142
:1031F000862F4AE050E08E010F5F1F4FB80190E02C
:103200000E94382BF80101900020E9F73197AF01B7
:10321000401B510BB801C7010E9495180F900F90E9
:103220000F900F90DF91CF911F910F91FF90EF9032
:103230000895EF92FF920F931F93CF93DF93CDB733
:10324000DEB728970FB6F894DEBF0FBECDBF7C0166
:10325000CB014AE050E08E010F5F1F4FB8010E9482
:10326000382BF80101900020E9F73197AF01401B9E
:10327000510BB801C7010E94951828960FB6F89413
:10328000DEBF0FBECDBFDF91CF911F910F91FF9099
:10329000EF900895EF92FF920F931F93CF93DF93D8
:1032A000CDB7DEB727970FB6F894DEBF0FBECDBF00
:1032B0007C01CB014AE050E08E010F5F1F4FB80147
:1032C0000E94AA2BF80101900020E9F73197AF0185
:1032D000401B510BB801C7010E94951827960FB6E5
:1032E000F894DEBF0FBECDBFDF91CF911F910F913C
:1032F000FF90EF900895EF92FF920F931F93CF935B
:10330000DF93CDB7DEB72E970FB6F894DEBF0FBEB2
:10331000CDBF7C01CB01BA012AE030E08E010F5F06
:103320001F4FA8010E944E2BF80101900020E9F7E1
:103330003197AF01401B510BB801C7010E9495188E
:103340002E960FB6F894DEBF0FBECDBFDF91CF91A2
:103350001F910F91FF90EF900895EF92FF920F93BE
:103360001F93CF93DF93CDB7DEB72D970FB6F894A9
:10337000DEBF0FBECDBF7C01CB01BA012AE030E039
:103380008E010F5F1F4FA8010E947D2BF801019055
:103390000020E9F73197AF01401B510BB801C7017D
:1033A0000E9495182D960FB6F894DEBF0FBECDBFC4
:1033B000DF91CF911F910F91FF90EF900895EF92C1
:1033C000FF920F931F93CF93DF93CDB7DEB7649730
:1033D0000FB6F894DEBF0FBECDBF7C01CB01BA01A2
:1033E0008E010F5F1F4F22E044E00E94CA27BC01FC
:1033F000FC0101900020E9F73197AF01481B590B00
:10340000C7010E94951864960FB6F894DEBF0FBEF0
:10341000CDBFDF91CF911F910F91FF90EF90089555
:10342000EF92FF920F931F93CF93DF93CDB7DEB749
:1034300064970FB6F894DEBF0FBECDBF7C01CB0101
:10344000BA018E010F5F1F4F22E044E00E94CA279D
:10345000BC01FC0101900020E9F73197AF01481B46
:10346000590BC7010E94951864960FB6F894DEBFF9
:103470000FBECDBFDF91CF911F910F91FF90EF90C5
:103480000895EF92FF920F931F93CF93DF936115EF
:10349000710511F480E01EC08B01EC01CB010E948C
:1034A000AA2A0097B1F02C813D817C01E20EF31E27
:1034B000B701CE010E946816882361F32881398103
:1034C0008C819D81B801820F931F0E94A32AFD82E7
:1034D000EC8281E0DF91CF911F910F91FF90EF90EF
:1034E0000895CF93DF93EC01FB0144815581608106
:1034F00071810E949518811103C0CE010E943C1673
:10350000CE01DF91CF910895CF93DF93EC01611548
:10351000710561F0FB0101900020E9F73197AF01DF
:10352000461B570B0E949518811103C0CE010E94C3
:103530003C16CE01DF91CF910895CF93DF93EC013C
:103540000E94D918811103C0CE010E943C16CE0101
:10355000DF91CF910895CF93DF93EC010E94ED1896
:10356000811103C0CE010E943C16CE01DF91CF91A4
:103570000895CF93DF93EC010E941919811103C0C4
:10358000CE010E943C16CE01DF91CF910895CF93DA
:10359000DF93EC010E944A19811103C0CE010E9401
:1035A0003C16CE01DF91CF910895CF93DF93EC01CC
:1035B0000E947B19811103C0CE010E943C16CE01EE
:1035C000DF91CF910895CF93DF93EC010E94AD1965
:1035D000811103C0CE010E943C16CE01DF91CF9134
:1035E0000895CF93DF93EC010E94DF19811103C08E
:1035F000CE010E943C16CE01DF91CF910895CF936A
:10360000DF93EC010E94101A811103C0CE010E94C9
:103610003C16CE01DF91CF910895CF93DF93EC015B
:103620000E94411A811103C0CE010E943C16CE01B6
:10363000DF91CF910895CF93DF93DC01ED91FC9161
:10364000EB01A881B981309711F01097C9F4109758
:1036500059F0EB012C813D81232B31F08C9190E0CE
:1036600091958195910914C0309781F0DC011496F1
:103670008D919C911597892B49F0808190E008C02D
:10368000BD01CF01DF91CF910C94E62A80E090E05C
:10369000DF91CF910895FC0144815581FB01248184
:1036A00035814217530729F40E941B1B21E0892B07
:1036B00009F020E0822F0895FC0124813581232B1D
:1036C00031F421E061157105A1F0FB0108C0FC0196
:1036D000808191816115710531F421E0FC018081C7
:1036E000882339F005C00E94E62A21E0892B09F0E1
:1036F00020E0822F08950E941B1B892F881F882796
:10370000881F08950E941B1B21E0181619060CF053
:1037100020E0822F08950E941B1B21E01816190635
:103720000CF420E0822F08950E941B1B892F8095A6
:10373000881F8827881F0895EF92FF920F931F9389
:10374000CF93DF938617970729F1FC0124813581F8
:10375000FB014481558124173507F1F4232BD1F067
:10376000DC01CD91DC91008111818991882391F058
:10377000082E000C990B0E94932A7C01F80181917C
:103780008F01082E000C990B0E94932AE816F90667
:1037900061F302C081E001C080E0DF91CF911F9111
:1037A0000F91FF90EF900895DB011496ED91FC913D
:1037B0001597DC0114962D913C9115972E1B3F0B0C
:1037C00024173507A0F02D913C912115310579F092
:1037D000DB016D917C916115710549F0CA01AF0162
:1037E000820F931F0E94F62A21E0892B09F020E026
:1037F000822F0895FC0144815581FB01248135818C
:103800004217530720F040E050E00C94D41B80E0B6
:103810000895FC0124813581FB01448155812417E1
:103820003507A0F0FC0180819181009779F0FB01C0
:10383000608171816115710549F0241B350B820F80
:10384000931F0E94E62A21E0892B09F020E0822FB5
:103850000895FC01248135816217730730F480815B
:103860009181FC01E60FF71F40830895FC0124813C
:1038700035816217730720F480819181009729F4C4
:1038800010922E058EE295E00895860F971F0895F9
:10389000FC01248135816217730748F4808191818E
:1038A000009729F0FC01E60FF71F8081089580E062
:1038B00008950C94481C0F931F93CF93DF934115E9
:1038C000510519F16115710501F1DC011496ED91B5
:1038D000FC9115972E173F0718F0FB01108215C0B9
:1038E000E21BF30BEA012197EC17FD0708F4EF0147
:1038F0008B01FC0160817181620F731FAE01C801F1
:103900000E94042BC00FD11F1882DF91CF911F910D
:103910000F910895CF93DF93FC01248135814217E5
:10392000530778F4C081D181062E000C770BCE01AD
:10393000840F951F0E94DB2A009719F08C1B9D0BAA
:1039400002C08FEF9FEFDF91CF91089540E050E0EC
:103950000C948A1CCF93DF93FC012481358142179C
:10396000530780F4FB01DC01CD91DC916081718112
:10397000CE01840F951F0E941E2B009719F08C1BFF
:103980009D0B02C08FEF9FEFDF91CF91089540E034
:1039900050E00C94AA1CDF92EF92FF920F931F93BA
:1039A000CF93DF93DC0114962D913C91159742172C
:1039B000530718F08FEF9FEF1DC08C01EA0121968D
:1039C000DC01ED91FC911197EC0FFD1FD08010826E
:1039D000ED90FC90062E000C770BC7010E94132B74
:1039E000CE0DDF1DD882009729F3F80120813181A7
:1039F000821B930BDF91CF911F910F91FF90EF905E
:103A0000DF900895FC0144815581415051090C9487
:103A1000CB1CAF92BF92CF92DF92EF92FF920F93A7
:103A20001F93CF93DF937B018A01FB014481558172
:103A30004115510561F1FC012481358121153105C4
:103A400031F12417350718F10217130718F089010F
:103A500001501109FC01A080B180C501DFEFCFEF5B
:103A60006501C00ED11EC816D906A0F0F70160810D
:103A700071810E941E2B009769F09C012A193B0955
:103A80000217130710F0D22FC32F0196ECCF8FEF40
:103A90009FEF02C08D2F9C2FDF91CF911F910F912F
:103AA000FF90EF90DF90CF90BF90AF900895FC0112
:103AB00044815581FB0124813581421B530B0C94B9
:103AC000091DBF92CF92DF92EF92FF920F931F9347
:103AD000CF93DF937C016B018A01E901241735073D
:103AE00020F4812F8901C42FD82F6DE572E0C70122
:103AF0000E94A516D60114968D919C9115970817D2
:103B00001907D0F48C179D0708F4EC01D601ED914C
:103B1000FC911197EC0FFD1FB08010824D915C91CC
:103B2000BA01600F711FC7010E94FB16D601ED910B
:103B3000FC91EC0FFD1FB082C701DF91CF911F9167
:103B40000F91FF90EF90DF90CF90BF900895DC0130
:103B5000ED91FC91309729F40895861301C04083BC
:103B6000319680818111F9CF08952F923F924F9223
:103B70005F926F927F928F929F92AF92BF92CF92FD
:103B8000DF92EF92FF920F931F93CF93DF93FC018D
:103B9000448055804114510409F4D2C0FB01648073
:103BA00075806114710409F4CBC07A016B018C013A
:103BB000FA01A480B580A618B708FC01C081D181A4
:103BC000A114B104C1F4F60160817181CE010E949B
:103BD0001E2BEC01892B09F4B3C0F70160817181C0
:103BE00044815581CE010E94C02AF70184819581CC
:103BF000C80FD91FE8CFB7FE02C04E0105C0FB01B8
:103C000020803180420143C0F60160817181C4018E
:103C10000E941E2B2C01892B21F132016818790892
:103C2000A301B401CE010E94C02AC60DD71DF70121
:103C30006081718144815581CE010E94C02AF701C3
:103C400084819581C80FD91FF60184809580840CEA
:103C5000951CF801848195818A0D9B1D9583848331
:103C6000D3CFB401CE01DF91CF911F910F91FF907F
:103C7000EF90DF90CF90BF90AF909F908F907F900C
:103C80006F905F904F903F902F900C94EF2AB1016E
:103C9000CE010E941E2B009731F0EC01C60DD71DFE
:103CA0008A0C9B1CF4CF8414950409F449C0F801D4
:103CB000828193818815990530F4B401C8010E946E
:103CC0004E168823E9F1F80144815581415051098C
:103CD00057FD36C0B601C8010E94091DEC0197FDD1
:103CE0002FC0F80180819181F601248135812C0F4C
:103CF0003D1F820F931FF80144815581421B530BD6
:103D0000BC018A0D9B1D0E94C92AF80184819581FE
:103D10008A0D9B1D9583848320813181F901E80FF1
:103D2000F91F1082F80180819181F7016081718112
:103D3000448155818C0F9D1F0E94C02AAE01C6CFC1
:103D4000DF91CF911F910F91FF90EF90DF90CF9077
:103D5000BF90AF909F908F907F906F905F904F90AB
:103D60003F902F900895CF93DF93DC011496ED914F
:103D7000FC9115976E177F0728F54115510511F134
:103D80009F01261B370B4217530708F49A01DB01EA
:103D9000EC0188819981E21BF30BFD83EC83AF0179
:103DA000461B570B260F371FBC01620F731F8A0F6C
:103DB0009B1F0E94042BE881F9818C819D81E80F73
:103DC000F91F1082DF91CF9108954FEF5FEF0C94B0
:103DD000B31ECF93DF93FC01C081D181209751F0B6
:103DE0008881882339F0082E000C990B0E94932AB1
:103DF0008993F6CFDF91CF910895CF93DF93FC01A4
:103E0000C081D181209751F08881882339F0082E14
:103E1000000C990B0E949B2A8993F6CFDF91CF91DA
:103E20000895AF92BF92CF92DF92EF92FF920F93DD
:103E30001F93CF93DF93DC01CD90DC901197C114D9
:103E4000D10409F442C01496CD91DC9115972097C6
:103E5000E1F18C0156017501BFEFAB1ABB0AF70106
:103E60008081082E000C990B0E948A2A892B99F7D1
:103E70002197CC0DDD1D8881082E000C990B0E9426
:103E80008A2A892B91F4AE014F5F5F4F4E195F096B
:103E9000D80115965C934E931497CE14DF0450F41A
:103EA000B701C6010E94C02A05C0CE15DF0558F330
:103EB0002197E1CFD801ED91FC91119714968D9146
:103EC0009C911597E80FF91F1082DF91CF911F91F8
:103ED0000F91FF90EF90DF90CF90BF90AF9008953B
:103EE000FC0180819181009711F00C94632A60E0BD
:103EF00070E0CB010895FC0180819181009711F061
:103F00000C945F2A60E070E0CB0108950C947B1F55
:103F10000E945A2A0E945A2A0C94EA270C94EA27F3
:103F20000C947F280C947F281F920F920FB60F924B
:103F300011242F933F938F939F93AF93BF938091BF
:103F40002F0590913005A0913105B0913205309147
:103F5000370523E0230F2D3720F40196A11DB11D55
:103F600005C026E8230F0296A11DB11D2093370539
:103F700080932F0590933005A0933105B0933205BF
:103F80008091330590913405A0913505B0913605A7
:103F90000196A11DB11D8093330590933405A09324
:103FA0003505B0933605BF91AF919F918F913F91A9
:103FB0002F910F900FBE0F901F9018952FB7F89468
:103FC00060912F05709130058091310590913205F7
:103FD0002FBF08953FB7F894809133059091340531
:103FE000A0913505B091360526B5A89B02C02F3F9C
:103FF00099F43FBFBA2FA92F982F8827820F911DC0
:10400000A11DB11DBC01CD0142E0660F771F881FC5
:10401000991F4A95D1F708950196A11DB11DE9CFC9
:104020008F929F92AF92BF92CF92DF92EF92FF92C8
:104030006B017C010E94EA1F4B015C01C114D10499
:10404000E104F104F1F00E94EA1FDC01CB018819C0
:104050009909AA09BB09883E9340A105B10570F3EF
:1040600081E0C81AD108E108F10828EE820E23E0A9
:10407000921EA11CB11CC114D104E104F104F1F29F
:10408000E2CFFF90EF90DF90CF90BF90AF909F90E6
:104090008F9008958230910538F0880F991F880F0E
:1040A000991F05970197F1F70895789484B5826078
:1040B00084BD84B5816084BD85B5826085BD85B5CC
:1040C000816085BDEEE6F0E0808181608083E1E87B
:1040D000F0E01082808182608083808181608083B3
:1040E000E0E8F0E0808181608083E1EBF0E08081B6
:1040F00084608083E0EBF0E0808181608083E1E98F
:10410000F0E0808182608083808181608083E0E94B
:10411000F0E0808181608083E1EAF0E0808182606C
:104120008083808181608083E0EAF0E0808181602B
:104130008083E1E2F1E08081826080838081816020
:104140008083E0E2F1E0808181608083EAE7F0E053
:1041500080818460808380818260808380818160AF
:1041600080838081806880831092C100089580934D
:1041700011020895863308F0865390917B00282F12
:104180002870977F922B90937B008770209111026B
:1041900090E4299F90011124822B80937C008091D0
:1041A0007A00806480937A0080917A0086FDFCCF4B
:1041B000809178002091790090E0922B08951F93D0
:1041C000CF93DF93182FEB0161E00E94FE2120972F
:1041D00011F460E004C0CF3FD10539F461E0812FD4
:1041E000DF91CF911F910C943A22E12FF0E0E75A32
:1041F000FD4FE4914E2F50E0FA013197E231F10585
:1042000008F09DC08827E058FF4F8F4F0C946C2515
:1042100084B5806884BDC7BD97C084B5806284BD05
:10422000C8BD92C080918000806880938000D09348
:104230008900C093880088C080918000806280934C
:104240008000D0938B00C0938A007EC08091800054
:10425000886080938000D0938D00C0938C0074C0E0
:104260008091B00080688093B000C093B3006CC0B0
:104270008091B00080628093B000C093B40064C0AD
:1042800080919000806880939000D0939900C093B3
:1042900098005AC080919000806280939000D093E3
:1042A0009B00C0939A0050C08091900088608093DA
:1042B0009000D0939D00C0939C0046C08091A000C8
:1042C00080688093A0008091A0008F7B8093A000E5
:1042D000D093A900C093A80037C08091A00080624D
:1042E0008093A000D093AB00C093AA002DC0809112
:1042F000A00088608093A000D093AD00C093AC0074
:1043000023C080912001806880932001D0932901EF
:10431000C093280119C08091200180628093200100
:10432000D0932B01C0932A010FC080912001886097
:1043300080932001D0932D01C0932C0105C0C0387B
:10434000D1050CF04BCF45CFDF91CF911F91089550
:1043500090E0FC013197E231F10508F04EC088276A
:10436000EE56FF4F8F4F0C946C25809180008F7715
:1043700003C0809180008F7D80938000089580919C
:104380008000877FF9CF84B58F7702C084B58F7D99
:1043900084BD08958091B0008F7703C08091B000F4
:1043A0008F7D8093B0000895809190008F7707C033
:1043B000809190008F7D03C080919000877F8093D3
:1043C000900008958091A0008F7707C08091A00091
:1043D0008F7D03C08091A000877F8093A000089507
:1043E000809120018F7707C0809120018F7D03C0CD
:1043F00080912001877F809320010895CF93DF93E0
:1044000090E0FC01E156FD4F2491FC01EB51FD4F82
:104410008491882361F190E0880F991FFC01E15A93
:10442000FC4FC591D491FC01EB5BFC4FA591B4917D
:10443000611109C09FB7F8948881209582238883F1
:10444000EC912E230BC0623061F49FB7F894388151
:10445000822F809583238883EC912E2B2C939FBFF2
:1044600006C08FB7F894E8812E2B28838FBFDF9189
:10447000CF9108951F93CF93DF93282F30E0F90158
:10448000E75AFD4F8491F901E156FD4FD491F901AE
:10449000EB51FD4FC491CC23C9F0162F81110E941E
:1044A000A821EC2FF0E0EE0FFF1FEB5BFC4FA59176
:1044B000B4918FB7F894111105C09C91ED2FE09540
:1044C000E92302C0EC91ED2BEC938FBFDF91CF91EC
:1044D0001F910895CF93DF93282F30E0F901E75A19
:1044E000FD4F8491F901E156FD4FD491F901EB5153
:1044F000FD4FC491CC2391F081110E94A821EC2F93
:10450000F0E0EE0FFF1FE55DFC4FA591B491EC913B
:10451000ED2381E090E021F480E002C080E090E0B3
:10452000DF91CF9108950F931F9390E0FC01E15626
:10453000FD4F7491FC01EB51FD4FE491662311F0A6
:10454000672F01C060E0F0E0EE0FFF1FE55DFC4F5C
:104550008591949189019A013F70462F672F0E949F
:104560004A23611571058105910549F0DC01CB01F4
:104570000196A11DB11DBC01CD019F7003C060E07B
:1045800070E0CB011F910F9108954F925F926F924F
:104590007F928F929F92AF92BF92CF92DF92EF92D3
:1045A000FF920F931F93CF93DF9369017A0190E0FD
:1045B000FC01E156FD4F1491FC01EB51FD4FC491FC
:1045C000662311F0012F01C000E00E94EA1F4B0199
:1045D0005C01D0E0CC0FDD1FC55DDC4FFE01A59175
:1045E000B4918C91812380131EC00E94EA1FDC01CC
:1045F000CB0188199909AA09BB09C816D906EA0688
:10460000FB0660F760E070E0CB0133C00E94EA1F58
:10461000DC01CB0188199909AA09BB09C816D9067A
:10462000EA06FB0678F3FE01A591B4918C918123F3
:104630008013ECCF0E94EA1F2B013C01FE01A591E3
:10464000B4918C91812380130EC00E94EA1FDC017B
:10465000CB0188199909AA09BB09C816D906EA0627
:10466000FB0660F7CFCF0E94EA1F6419750986091F
:104670009709DF91CF911F910F91FF90EF90DF90FD
:10468000CF90BF90AF909F908F907F906F905F90F2
:104690004F900895CF92DF92EF92FF920F931F9366
:1046A000E82FF92F05C0015011092109310961F1E5
:1046B000908196239417B9F305C00150110921097F
:1046C000310911F1908196239413F7CFC12CD12C8D
:1046D000E12CF12C0AC08FEFC81AD80AE80AF80AB0
:1046E0000C151D052E053F0579F080818623841762
:1046F00091F36C2D7D2D8E2D9F2D1F910F91FF908D
:10470000EF90DF90CF90089560E070E080E090E05F
:104710001F910F91FF90EF90DF90CF900895AF928F
:10472000BF92DF92EF92FF920F931F93CF93DF938D
:10473000E82EF62ED42E07E010E0C0E087E0A82E89
:10474000B12C61E08F2D0E943A228E2DD1100AC02B
:104750000E946A229501201B310B01C0880F2A9507
:10476000EAF707C00E946A22002E01C0880F0A944F
:10477000EAF7C82B60E08F2D0E943A220150110900
:1047800000F78C2FDF91CF911F910F91FF90EF9049
:10479000DF90BF90AF900895BF92CF92DF92EF92DB
:1047A000FF920F931F93CF93DF93C82ED62EB42E74
:1047B000C7E0D0E0022F10E087E0E82EF12CB11026
:1047C00005C0C7018C1B9D0B980102C098018C2F5E
:1047D00002C0359527958A95E2F7B9016170772770
:1047E0008C2D0E943A2261E08D2D0E943A2260E0D9
:1047F0008D2D0E943A22219710F7DF91CF911F91C2
:104800000F91FF90EF90DF90CF90BF90089561E0FF
:104810008DE00E94FE2161E08DE00E943A2220E0BE
:1048200042E060E182E792E00E9460076CE172E0A2
:1048300082E792E00E94A40980E090E00895AF92A0
:10484000CF92EF920F9387E0A82E96E0C92E25E035
:10485000E22E04E029E04BE068E082E792E00E946B
:104860008B080F91EF90CF90AF900895EAE8F2E0B7
:104870001382128288EE93E0A0E0B0E084839583F7
:10488000A683B78381E492E09183808385EC90E0F6
:104890009587848784EC90E09787868780EC90E00A
:1048A000918B808B81EC90E0938B828B82EC90E0FB
:1048B000958B848B86EC90E0978B868B118E128E75
:1048C000138E148E0895E7E2F3E01382128288EECD
:1048D00093E0A0E0B0E084839583A683B78381E46E
:1048E00092E0918380838DEC90E0958784878CECB7
:1048F00090E09787868788EC90E0918B808B89EC9D
:1049000090E0938B828B8AEC90E0958B848B8EEC7D
:1049100090E0978B868B118E128E138E148E0895D5
:10492000E4ECF3E01382128288EE93E0A0E0B0E0C2
:1049300084839583A683B78381E492E09183808307
:1049400085ED90E09587848784ED90E09787868752
:1049500080ED90E0918B808B81ED90E0938B828B4A
:1049600082ED90E0958B848B86ED90E0978B868B23
:10497000118E128E138E148E0895E1E6F4E01382E8
:10498000128288EE93E0A0E0B0E084839583A68352
:10499000B78381E492E09183808385E391E09587FA
:1049A000848784E391E09787868780E391E0918B09
:1049B000808B81E391E0938B828B82E391E0958BF6
:1049C000848B86E391E0978B868B118E128E138EEB
:1049D000148E0895EEEFF4E081E592E091838083F8
:1049E0001282138214821582089540E00C94070706
:1049F00041E00E94070781E090E00895611571058C
:104A000079F0FB0101900020E9F73197AF01461BD7
:104A1000570BDC01ED91FC910280F381E02D19949C
:104A200080E090E008950C94382B0C944E2B0C945D
:104A3000AA2B0C947D2BDB018F939F930E947425EE
:104A4000BF91AF91A29F800D911DA39F900DB29F2A
:104A5000900D11240895A1E21A2EAA1BBB1BFD0183
:104A60000DC0AA1FBB1FEE1FFF1FA217B307E4074D
:104A7000F50720F0A21BB30BE40BF50B661F771FA5
:104A8000881F991F1A9469F7609570958095909585
:104A90009B01AC01BD01CF010895052E97FB1EF4CB
:104AA00000940E94642557FD07D00E942B2507FC27
:104AB00003D04EF40C946425509540953095219583
:104AC0003F4F4F4F5F4F089590958095709561953A
:104AD0007F4F8F4F9F4F0895EE0FFF1F881F8BBF93
:104AE0000790F691E02D19940E947F25A59F900DC7
:104AF000B49F900DA49F800D911D11240895A29F35
:104B0000B001B39FC001A39F700D811D1124911DA1
:104B1000B29F700D811D1124911D08955058BB271F
:104B2000AA270E94A6250C9419270E940B2738F06B
:104B30000E94122720F039F49F3F19F426F40C94B8
:104B400008270EF4E095E7FB0C940227E92F0E945A
:104B50002A2758F3BA17620773078407950720F0CE
:104B600079F4A6F50C944C270EF4E0950B2EBA2F91
:104B7000A02D0B01B90190010C01CA01A001112463
:104B8000FF27591B99F0593F50F4503E68F11A160F
:104B9000F040A22F232F342F4427585FF3CF4695A0
:104BA00037952795A795F0405395C9F77EF41F16C2
:104BB000BA0B620B730B840BBAF09150A1F0FF0F8C
:104BC000BB1F661F771F881FC2F70EC0BA0F621F78
:104BD000731F841F48F4879577956795B795F79568
:104BE0009E3F08F0B0CF9395880F08F09927EE0FFD
:104BF0009795879508950E94DE2608F481E0089530
:104C00000E9414260C9419270E94122758F00E9423
:104C10000B2740F029F45F3F29F00C940227511133
:104C20000C944D270C9408270E942A2768F3992397
:104C3000B1F3552391F3951B550BBB27AA27621798
:104C40007307840738F09F5F5F4F220F331F441FA5
:104C5000AA1FA9F335D00E2E3AF0E0E832D09150D9
:104C60005040E695001CCAF72BD0FE2F29D0660FC6
:104C7000771F881FBB1F261737074807AB07B0E809
:104C800009F0BB0B802DBF01FF2793585F4F3AF00F
:104C90009E3F510578F00C9402270C944D275F3FFE
:104CA000E4F3983ED4F3869577956795B795F79595
:104CB0009F5FC9F7880F911D9695879597F908957D
:104CC000E1E0660F771F881FBB1F62177307840719
:104CD000BA0720F0621B730B840BBA0BEE1F88F728
:104CE000E09508950E94322788F09F5798F0B92FD9
:104CF0009927B751B0F0E1F0660F771F881F991F11
:104D00001AF0BA95C9F714C0B13091F00E944C273F
:104D1000B1E008950C944C27672F782F8827B85F4F
:104D200039F0B93FCCF3869577956795B395D9F768
:104D30003EF490958095709561957F4F8F4F9F4F72
:104D40000895E89409C097FB3EF49095809570957E
:104D500061957F4F8F4F9F4F9923A9F0F92F96E9C7
:104D6000BB279395F695879577956795B795F1113C
:104D7000F8CFFAF4BB0F11F460FF1BC06F5F7F4FD9
:104D80008F4F9F4F16C0882311F096E911C07723EB
:104D900021F09EE8872F762F05C0662371F096E8F4
:104DA000862F70E060E02AF09A95660F771F881FC3
:104DB000DAF7880F9695879597F90895990F000867
:104DC000550FAA0BE0E8FEEF16161706E807F907DD
:104DD000C0F012161306E407F50798F0621B730B78
:104DE000840B950B39F40A2661F0232B242B252BF9
:104DF00021F408950A2609F4A140A6958FEF811D9C
:104E0000811D089597F99F6780E870E060E008953C
:104E10009FEF80EC089500240A94161617061806D2
:104E20000906089500240A941216130614060506AE
:104E30000895092E0394000C11F4882352F0BB0F3F
:104E400040F4BF2B11F460FF04C06F5F7F4F8F4FA2
:104E50009F4F089557FD9058440F551F59F05F3FDD
:104E600071F04795880F97FB991F61F09F3F79F08C
:104E700087950895121613061406551FF2CF46950E
:104E8000F1DF08C0161617061806991FF1CF869590
:104E90007105610508940895E894BB276627772774
:104EA000CB0197F908950E94DE2608F48FEF08954C
:104EB0000E946B270C9419270E940B2738F00E9440
:104EC000122720F0952311F00C9402270C94082748
:104ED00011240C944D270E942A2770F3959FC1F34B
:104EE000950F50E0551F629FF001729FBB27F00D98
:104EF000B11D639FAA27F00DB11DAA1F649F6627ED
:104F0000B00DA11D661F829F2227B00DA11D621F3B
:104F1000739FB00DA11D621F839FA00D611D221FF5
:104F2000749F3327A00D611D231F849F600D211DD9
:104F3000822F762F6A2F11249F5750409AF0F1F05C
:104F400088234AF0EE0FFF1FBB1F661F771F881FC5
:104F500091505040A9F79E3F510580F00C940227D4
:104F60000C944D275F3FE4F3983ED4F386957795F4
:104F70006795B795F795E7959F5FC1F7FE2B880F6B
:104F8000911D9695879597F908950E94DE26880BC6
:104F9000990B0895EF920F931F93CF93DF93E8013E
:104FA00047FD02C034E001C034E1E42F440FFF0BA1
:104FB000F7FF03C0F195E195F109E32E022F2E2FA3
:104FC000AE010E94CF2BCE01DF91CF911F910F91A7
:104FD000EF900895CF93DF938230910510F482E033
:104FE00090E0E0913A05F0913B0520E030E0C0E030
:104FF000D0E0309711F14081518148175907C0F036
:105000004817590761F482819381209719F09B8397
:105010008A832BC090933B0580933A0526C02115C7
:10502000310519F04217530718F49A01BE01DF0148
:10503000EF010280F381E02DDCCF2115310509F16C
:10504000281B390B2430310590F412968D919C91D8
:1050500013976115710521F0FB019383828304C0CE
:1050600090933B0580933A05FD01329644C0FD01C3
:10507000E20FF31F81939193225031092D933C93BA
:105080003AC02091380530913905232B41F4209105
:105090001402309115023093390520933805209180
:1050A0001202309113022115310541F42DB73EB79C
:1050B0004091160250911702241B350BE0913805E0
:1050C000F0913905E217F307A0F42E1B3F0B2817C8
:1050D000390778F0AC014E5F5F4F2417350748F071
:1050E0004E0F5F1F5093390540933805819391937C
:1050F00002C0E0E0F0E0CF01DF91CF9108950F937F
:105100001F93CF93DF93009709F48CC0FC01329773
:105110001382128200913A0510913B050115110589
:1051200081F420813181820F931F209138053091C5
:1051300039052817390779F5F0933905E0933805D3
:1051400071C0D80140E050E0AE17BF0750F412968E
:105150002D913C911397AD012115310509F1D9012C
:10516000F3CF9D01DA013383228360817181860F41
:10517000971F8217930769F4EC0128813981260F64
:10518000371F2E5F3F4F318320838A819B8193831A
:105190008283452B29F4F0933B05E0933A0542C006
:1051A0001396FC93EE931297ED01499159919E014C
:1051B000240F351FE217F30771F480819181840F6A
:1051C000951F029611969C938E93828193811396DC
:1051D0009C938E931297E0E0F0E0D80112968D91A7
:1051E0009C911397009719F0F8018C01F6CF8D91DF
:1051F0009C9198012E5F3F4F820F931F209138059D
:10520000309139052817390769F4309729F410923D
:105210003B0510923A0502C01382128210933905A1
:1052200000933805DF91CF911F910F9108958F92D0
:105230009F92AF92BF92CF92DF92EF92FF92CF9365
:10524000DF93EC01688179818A819B816115710509
:105250008105910521F464E279ED8BE597E02DE17C
:1052600033EF41E050E00E944D2549015A019B0176
:10527000AC01A7EAB1E40E9474256B017C01ACEE9D
:10528000B4EFA50194010E94D22FDC01CB018C0D5B
:105290009D1DAE1DBF1DB7FF03C00197A109B048FA
:1052A00088839983AA83BB83BC01CD019F77DF915B
:1052B000CF91FF90EF90DF90CF90BF90AF909F90F5
:1052C0008F9008950C94172988E192E00C94172987
:1052D000609318027093190280931A0290931B0234
:1052E00008956F927F928F929F92AF92BF92CF92CA
:1052F000DF92EF92FF920F931F93CF93DF93EC0116
:10530000009789F4CB01DF91CF911F910F91FF900E
:10531000EF90DF90CF90BF90AF909F908F907F9055
:105320006F900C94EA27FC01E60FF71F9C012250B6
:105330003109E217F30708F4ACC0D9010D911C91B3
:10534000119706171707B0F00530110508F49FC034
:10535000C80104978617970708F499C002501109ED
:10536000061B170B019311936D937C93CF010E9441
:105370007F288DC05B01A01AB10A4C01800E911EDE
:10538000A0913A05B0913B0540E050E0E12CF12CB2
:10539000109709F44AC0A815B905D1F56D907C9015
:1053A0001197630182E0C80ED11CCA14DB0480F19E
:1053B000A3014A195B096A0182E0C80ED11C12964A
:1053C000BC9012971396AC91B5E0CB16D10440F087
:1053D000B282A38351834083D9016D937C930AC029
:1053E0000E5F1F4FC301800F911FF90191838083CE
:1053F000EB2DFA2FE114F10431F0D7011396FC9351
:10540000EE93129744C0F0933B05E0933A053FC0FA
:105410008D919C9111974817590708F4AC017D01B3
:1054200012960D90BC91A02DB3CF8091380590912C
:10543000390588159905E1F446175707C8F4809196
:10544000120290911302009741F48DB79EB74091DC
:10545000160250911702841B950BE817F907C8F440
:10546000F0933905E0933805F901718360830FC02B
:10547000CB010E94EA277C01009759F0A801BE01E8
:105480000E94C02ACE010E947F28C70104C0CE011D
:1054900002C080E090E0DF91CF911F910F91FF90CB
:1054A000EF90DF90CF90BF90AF909F908F907F90C4
:1054B0006F90089581E090E0F8940C94D72F6627C0
:1054C00077270C945D2D1F93FC0199278827BC0139
:1054D000E89411911032E9F3193010F01E30C8F33E
:1054E0001B3251F01D3249F4689406C00E94682BAB
:1054F000610F711D811D911D119110531A30B0F370
:105500003EF490958095709561957F4F8F4F9F4F9A
:105510001F91089591110C94A42F803219F0895095
:105520008550C8F708959111089581548A5108F45F
:10553000805E855A08959111089581568A5108F424
:10554000805285580895FB01DC0105900D920020E2
:10555000E1F70895FC0105900020E9F7809590950A
:105560008E0F9F1F0895FB01DC0104C08D910190F7
:10557000801921F441505040C8F7881B990B0895B9
:10558000FB01DC0102C001900D9241505040D8F760
:1055900008956817790768F4FB01DC01E40FF51F33
:1055A000A40FB51F02C002900E9241505040D8F790
:1055B00008950C94C02AFC018191861721F088235C
:1055C000D9F7992708953197CF010895FB01DC01A0
:1055D0008D91019080190110D9F3990B0895FB0169
:1055E000DC0101900D920020E1F70895FB01DC0140
:1055F0004150504030F08D910190801919F40020F5
:10560000B9F7881B990B0895FB01DC01415050400C
:1056100048F001900D920020C9F701C01D92415041
:105620005040E0F70895FC0181E090E001900616FB
:1056300009F4CF010020D1F701970895FB015191A2
:105640005523A9F0BF01DC014D9145174111E1F748
:1056500059F4CD010190002049F04D9140154111C0
:10566000C9F3FB014111EFCF81E090E0019708956C
:105670004532510520F4423010F00C94432BFB01CD
:105680001082CB010895BB274A3031F4992322F4CC
:10569000BDE2909581959F4F0C94B62B2532310534
:1056A00020F4223010F00C94592BFA011082CA0118
:1056B0000895BB272A3051F4992342F4BDE2909516
:1056C0008095709561957F4F8F4F9F4F0C94892BDC
:1056D000592F482F372F262F660F771F881F991FA6
:1056E000660F771F881F991F620F731F841F951FF6
:1056F000660F771F881F991F08952532310520F402
:10570000223010F00C94882BFA011082CA010895FF
:10571000BB27FA01A62F6217710581059105330B8E
:1057200030FB66F0AA27660F771F881F991FAA1FF4
:10573000A21710F0A21B63953850A9F7A05DAA33F9
:1057400008F0A95DA19336F7B111B1931082CA0197
:105750000C94BF2F4532510520F4423010F00C94C8
:10576000B52BFB011082CB010895BB27FB01552708
:10577000AA27880F991FAA1FA41710F0A41B8395AE
:105780005051B9F7A05DAA3308F0A95DA193009725
:1057900079F7B111B1931192CB010C94BF2F4F92B5
:1057A0005F926F927F929F92AF92BF92CF92DF9261
:1057B000EF92FF920F931F93CF93DF93CDB7DEB796
:1057C00029970FB6F894DEBF0FBECDBF6A01122F26
:1057D000B02E2BE3201720F0FF24F394F00E02C02C
:1057E000BCE3FB2E0F2D27E0AE014F5F5F4F0E9401
:1057F000CC2EAC018981982F9970913031F0E1FC69
:1058000006C0E0FE06C090E205C09DE203C09BE238
:1058100001C090E0EE2DE07183FF3CC0911102C009
:1058200083E001C084E0811718F4212F281B01C0F8
:1058300020E0E1110BC0F601822F30E2882319F03D
:1058400031938150FBCFC20ED11C20E0992329F067
:10585000D6019C93F60131966F01C6010396E2FED4
:105860000AC03EE4D6013C9341E411964C93119753
:1058700012963C9306C03EE6F601308341E6418332
:105880003283FC01322F40E2332309F442C04193BA
:105890003150FACF82FF44C0911102C083E001C0B1
:1058A00084E0811718F4212F281B01C020E0E111AA
:1058B0000BC0F601822F30E2882319F0319381501A
:1058C000FBCFC20ED11C20E0992329F0D6019C9376
:1058D000F60131966F01C6010396E2FE0BC039E472
:1058E000D6013C933EE411963C93119736E4129610
:1058F0003C9307C039E6F60130833EE6318336E655
:105900003283FC01322F40E2332319F041933150AE
:10591000FBCFFC01E20FF11D10828EEF9FEFB7C0AD
:10592000F1E0911101C0F0E06F2F70E01416150640
:1059300024F49A012F5F3F4F02C021E030E0260F90
:10594000371FBB2029F06B2D70E06F5F7F4F02C0C7
:1059500060E070E0260F371F612F70E026173707D1
:105960001CF4121B212F01C020E03E2D387159F488
:10597000D601322F60E2332319F06D933150FBCF03
:10598000C20ED11C20E0FF2331F0D6019C93B6015A
:105990006F5F7F4F6B01E1110BC0F601922F30E377
:1059A000992319F031939150FBCFC20ED11C20E006
:1059B0009F2D940F3A81782F7071A72E84FF03C01A
:1059C000313309F49150191624F4993018F098E005
:1059D00001C091E0E42F852F57FF02C0E0E080E096
:1059E0006E2F782FE0E0F0E0AEE29A2E3A01691ACD
:1059F00071082A01461A570A0B2D10E011950195DE
:105A000011096F3F8FEF780729F4D6019C92C601E8
:105A100001966C014617570784F0661677066CF4FA
:105A20007F01E40CF51CA1E0B0E0AC0FBD1FEA0E55
:105A3000FB1ED7011196BC9002C090E3B92E6150B5
:105A400071093196C60101967C016017710724F037
:105A5000D601BC926C01D5CF6417750741F436337B
:105A600020F4353321F4A11002C081E3B82EF601F1
:105A7000B082F701822F90E2882319F09193815030
:105A8000FBCFF701E20FF11D108280E090E0299634
:105A90000FB6F894DEBF0FBECDBFDF91CF911F913F
:105AA0000F91FF90EF90DF90CF90BF90AF909F90BD
:105AB0007F906F905F904F9008956F927F928F923A
:105AC0009F92AF92BF92CF92DF92EF92FF920F938D
:105AD0001F93CF93DF93EC017B016115710519F0E2
