:100000000C9472000C9486000C9486000C9486006C
:100010000C9486000C9486000C9486000C94860048
:100020000C9486000C9486000C9486000C94860038
:100030000C9486000C9486000C9486000C94860028
:100040000C9486000C9486000C9486000C94860018
:100050000C9486000C9486000C9486000C94860008
:100060000C9486000C9486000C9486000C948600F8
:100070000C9486000C9486000C9486000C948600E8
:100080000C9486000C9486000C9486000C948600D8
:100090000C9486000C9486000C9486000C948600C8
:1000A0000C9486000C9486000C9486000C948600B8
:1000B0000C9486000C9486000C9486000C948600A8
:1000C0000C9486000C9486000C9486000C94860098
:1000D0000C9486000C9486000C9486000C94860088
:1000E0000C94860011241FBECFEFD1E2DEBFCDBF3E
:1000F00000E00CBF22E0A0E0B2E001C01D92A830F9
:10010000B207E1F70E94D8000C94F2000C940000B2
:10011000279A08952F9A08952F98089585B18058A9
:1001200085B90895ECE7F0E0808180648083EAE798
:10013000F0E0808187688083089590917C00907EB4
:1001400090937C0090917C00282F2770922B9093A5
:100150007C00887080937B0080917A00806480931B
:100160007A0080917A0086FDFCCF80917800909192
:100170007900089588E00E949D0090930702809383
:10018000060289E00E949D0090930502809304027C
:1001900008958AE00E949D009093030280930202DA
:1001A0008BE00E949D0090930102809300020895CD
:1001B0000E9488000E9492000E94C9008091020261
:1001C00090910302843F914038F080910002909119
:1001D0000102843F914018F40E948A00EDCF0E94F2
:0801E0008C00EACFF894FFCF78
:00000001FF
