:100000000C9478000C948C000C948C000C948C0054
:100010000C948C000C948C000C948C000C948C0030
:100020000C948C000C948C000C948C000C948C0020
:100030000C948C000C948C000C948C000C948C0010
:100040000C948C000C946C020C948C000C948C001E
:100050000C948C000C948C000C948C000C948C00F0
:100060000C948C000C948C000C948C000C948C00E0
:100070000C948C000C948C000C948C000C948C00D0
:100080000C948C000C948C000C948C000C948C00C0
:100090000C948C000C948C000C948C000C948C00B0
:1000A0000C948C000C948C000C948C000C948C00A0
:1000B0000C948C000C948C000C948C000C948C0090
:1000C0000C948C000C948C000C948C000C948C0080
:1000D0000C948C000C948C000C948C000C948C0070
:1000E0000C948C000C94BF000C94BA000C94B500D6
:1000F00011241FBECFEFD1E2DEBFCDBF00E00CBFA9
:1001000022E1A0E0B2E001C01D92AD38B207E1F7F4
:100110000E943E030C9453030C9400008FEF84B9AB
:1001200008958FEF87B908952F9A08952F9808950D
:1001300085B1805885B90895479A089547980895DC
:1001400098B121E030E001C0220F8A95EAF7292B0F
:1001500028B9089598B121E030E001C0220F8A95B6
:10016000EAF72095292328B908950E948E000E945D
:100170009400FDCF0E948E000E949600FDCF8091DA
:10018000080290910902892B69F0F894E091040229
:10019000F0910502EA5FFE4F83E090E09183808357
:1001A0000C94E9020895FC01329620E031E0DF0171
:1001B000A9011D9241505040E1F7E150FF4F2FEB54
:1001C00030E020833197308331976083319770839B
:1001D000319710829C0126523F4FDC012D933C93B6
:1001E000379660837183329611821082349781E052
:1001F00090E0918380830895209106023091070258
:100200002031310541F1EFE0F3E020E030E04081C2
:100210005181452B39F02F5F3F4FE85FFE4F203172
:100220003105A9F740910602509107024F5F5F4FD9
:10023000509307024093060268E071E0269FA001F8
:10024000279F500D369F500D1124BC01CA01835FBA
:100250009D4F0C94D300089528E031E080910A026C
:1002600090910B02829FF001839FF00D929FF00D01
:100270001124E15FFC4F80819181019761F08091B1
:100280000A0290910B0201968F70992790930B02AE
:1002900080930A02E3CF40910A0250910B0228E0BA
:1002A00031E0429FC001439F900D529F900D112459
:1002B000835F9D4F9093050280930402FC01EE5FE3
:1002C000FE4F82E090E09183808380910A029091BA
:1002D0000B0280930C0280910A0290910B0201960E
:1002E0008F70992790930B0280930A0208951092C1
:1002F0000702109206021092090210920802109250
:100300000B0210920A0210920C02EDE0F2E088E07B
:1003100091E0DF019C011D9221503040E1F7DF01A7
:10032000AE5FBE4F1D921C92E85FFE4F32E1ED388A
:10033000F30779F70895CF93DF93809108029091A6
:100340000902892B09F058C080910602909107029A
:10035000892B09F451C0F89481E090E09093090250
:10036000809308020E942C01C1E0D0E0E0910402D9
:10037000F0910502DF01AA5FBE4F11961C921E92FA
:100380008081918190930102809300020E949E00DF
:1003900080910C020E94A0000E949402E09104024D
:1003A000F091050280910002909101029183808377
:1003B000DF01AA5FBE4F8D919C918130910571F054
:1003C0001CF4892B91F0D2CF8230910571F0039704
:1003D00069F6EE5FFE4F118210820BC0EC5FFE4F9C
:1003E000808191810E94FC00C1CFEE5FFE4FD183DE
:1003F000C0830E942C01BACFDF91CF910895089558
:1004000080E090E008952091080230910902232BAA
:1004100091F0F8942091040230910502F901EA5F0D
:10042000FE4F41E050E051834083329791838083B7
:100430000E94E90202C00E94FC0080E090E0089562
:1004400080E090E008958091080290910902892B44
:1004500099F080910C020E94AA000E949C00F894DE
:10046000E0910402F0910502EA5FFE4F82E090E025
:10047000918380830C94E902089580E090E00895D0
:1004800080E090E00895089580E090E00895089558
:1004900080E090E00895F89410928000E1E8F0E0A8
:1004A0001082109285001092840081E792E0909370
:1004B0008900809388008081886080838081846047
:1004C0008083EFE6F0E080818260808378940E94F0
:1004D0008E000C94910008951F920F920FB60F9208
:1004E00011240BB60F922F933F934F935F936F930B
:1004F0007F938F939F93AF93BF93EF93FF930E944C
:100500002302FF91EF91BF91AF919F918F917F91C6
:100510006F915F914F913F912F910F900BBE0F9074
:100520000FBE0F901F9018950F921F922F923F921F
:100530004F925F926F927F928F929F92AF92BF92F3
:10054000CF92DF92EF92FF920F931F932F933F93DF
:100550004F935F936F937F938F939F93AF93BF93CB
:10056000CF93DF93EF93FF930FB70F930CB70F93D6
:10057000EDB7FEB7E0930202F0930302E0910002B0
:10058000F0910102EDBFFEBF0F910CBF0F910FBFA5
:10059000FF91EF91DF91CF91BF91AF919F918F919B
:1005A0007F916F915F914F913F912F911F910F918B
:1005B000FF90EF90DF90CF90BF90AF909F908F9083
:1005C0007F906F905F904F903F902F901F900F9073
:1005D00018950F921F922F923F924F925F926F92B7
:1005E0007F928F929F92AF92BF92CF92DF92EF92C3
:1005F000FF920F931F932F933F934F935F936F93AC
:100600007F938F939F93AF93BF93CF93DF93EF939A
:10061000FF930FB70F930CB70F93EDB7FEB7E093AF
:100620000002F0930102E0910202F0910302EDBF9B
:10063000FEBF0F910CBF0F910FBFFF91EF91DF91A4
:10064000CF91BF91AF919F918F917F916F915F916A
:100650004F913F912F911F910F91FF90EF90DF905D
:10066000CF90BF90AF909F908F907F906F905F9052
:100670004F903F902F901F900F9008950E944B0233
:100680000E94770160E070E085EB90E00E94030239
:1006900060E070E08AEB90E00E9403020E949B0100
:0A06A00080E090E00895F894FFCF89
:00000001FF
