:100000000C945D020C94E0140C940B150C943615B2
:100010000C9461150C948C150C94B7150C94E21586
:100020000C940D160C948E020C948E020C948E027D
:100030000C948E020C94E1130C948E020C948E029C
:100040000C948E020C948E020C948E020C948E02F0
:100050000C948E020C948E020C948E020C942A2026
:100060000C948E020C94B1040C94E7040C948E0250
:100070000C948E020C948E020C948E020C948E02C0
:100080000C9490020C948E020C948E020C948E02AE
:100090000C941B050C9451050C948E020C948E024A
:1000A0000C948E020C948E020C948E020C948E0290
:1000B0000C948E020C948E020C948E020C948E0280
:1000C0000C948E020C948E020C948E020C94850576
:1000D0000C94BB050C948E020C94EF050C94250631
:1000E0000C948E0290145A1462146E147B149C1497
:1000F000A914D014C614C814CA14CC14D214D4141D
:100100009E21A321A821B221BC213522C621CE21C6
:10011000D621E021EA21F42103220D2235221722E3
:1001200021222B2259225C224B224F22552293223C
:10013000602264226A226E22722278227C2280222D
:10014000932286228A228E220C946E220C94CA1448
:100150000C94DA240C9493220C945C220C94862246
:100160000C94D4140C94D6210C94CC140C944114FB
:100170000C94C8140C94A9140C94DD090C94A321BC
:100180000C9435220C94BC210C94EA210C94D214CA
:100190000C941E200C9417220C946A220C942603B3
:1001A0000C948E250C9459060C944F060C947222D4
:1001B0000C947B050C9411050C94E0210C94A8215F
:1001C0000C94D4030C94B2030C9461250C94072571
:1001D0000C9462140C9421220C942B220C949E21DA
:1001E0000C94C7240C94E5050C9460220C949C1488
:1001F0000C944F220C944B220C9455220C947C228C
:100200000C94C6140C946E140C948A220C948E22B6
:100210000C94B2210C9490140C9464220C9403223C
:100220000C947B140C94C6210C940D220C94320374
:100230000C9440030C94D0140C949C250C948022B4
:100240000C9434250C94CE210C9459220C947822D1
:100250000C94F4210C945A140200000A0B02090CAD
:100260000D0E08070304010000000000000000005C
:10027000000000000000000000000000000000007E
:10028000000000000012111000000000000000003B
:10029000000000000000000000000000000000015D
:1002A0000210202008081020401020408002010287
:1002B000010804020101020408102040808040204F
:1002C000100804020180040201804020100804028A
:1002D0000108040201010204081020408001020408
:1002E00008102040800505050507050808080802D4
:1002F0000202020A0A0808040404040101010101BF
:100300000101010303030303030303040707070CAD
:100310000C0C0C0C0C0C0C02020202060606060663
:100320000606060B0B0B0B0B0B0B0B000020002320
:1003300000260029002C002F0032000001000003DD
:10034000010601090100002200250028002B002ED3
:10035000003100340002010000050108010B01001A
:10036000002100240027002A002D00300033000166
:10037000010000040107010A014E414E494E495453
:1003800059494E46CDCCCC3D0AD7233C17B7D1387E
:1003900077CC2B329595E6241FB14F0A00002041FF
:1003A0000000C84200401C4620BCBE4CCA1B0E5A6E
:1003B000AEC59D7400407A10F35A00A0724E180921
:1003C0000010A5D4E80000E87648170000E40B54BC
:1003D000020000CA9A3B000000E1F505000080968B
:1003E0009800000040420F000000A08601000000BD
:1003F000102700000000E803000000006400000077
:1004000000000A00000000000100000000002C763F
:10041000D888DC674F0823DFC1DFAE59E1B1B7965A
:10042000E5E3E453C63AE651997696E8E6C28426B7
:10043000EB898C9B62ED407C6FFCEFBC9C9F40F293
:10044000BAA56FA5F490055A2AF75C936B6CF9670F
:100450006DC11BFCE0E40D47FEF520E6B500D0EDD4
:10046000902E0300943577050080841E080000203C
:100470004E0A000000C80C333333330F986E1283DA
:100480001141EF8D2114893BE65516CFFEE6DB18AE
:10049000D1844B381BF77C1D901DA4BBE424203273
:1004A00084725E228100C9F124ECA1E53D27C724B6
:1004B000DA240725342561258E2511241FBECFEFB0
:1004C000D1E2DEBFCDBF00E00CBF12E0A0E0B2E0A1
:1004D000E4E9F0E600E00BBF02C007900D92A635FC
:1004E000B107D9F725E0A6E5B2E001C01D92A83218
:1004F000B207E1F714E0CAEBD4E000E006C02297AF
:100500000109FE010BBF0E942126CE3AD10780E0EF
:100510000807A9F70E949D240C9448300C94000011
:100520001F920F920FB60F9211240BB60F922F93BA
:100530003F934F935F936F937F938F939F93AF936B
:10054000BF93EF93FF938091720290917302019693
:10055000909373028093720284369105E4F0809147
:1005600070029091710201969093710280937002D3
:100570001092730210927202CC976CF080916E020E
:1005800090916F02019690936F0280936E02109289
:1005900071021092700260916E0270916F024AE0D7
:1005A00050E086E592E00E943E0B80916E029091B1
:1005B0006F020A9734F46CE172E086E592E00E94E3
:1005C0003A0A6EE172E086E592E00E943A0A609192
:1005D0007002709171024AE050E086E592E00E945C
:1005E0003E0B80917002909171020A9734F46CE195
:1005F00072E086E592E00E943A0A6EE172E086E5DA
:1006000092E00E943A0A60917202709173024AE08D
:1006100050E086E592E00E943E0B40E060E086E517
:1006200092E00E94D407FF91EF91BF91AF919F910B
:100630008F917F916F915F914F913F912F910F908B
:100640000BBE0F900FBE0F901F901895FC01918D5F
:10065000228D892F90E0805C9F4F821B91098F73C0
:1006600099270895FC01918D828D981731F0828D24
:10067000E80FF11D858D90E008958FEF9FEF0895AD
:10068000FC01918D828D981761F0828DDF01A80F9A
:10069000B11D5D968C91928D9F5F9F73928F90E0BC
:1006A00008958FEF9FEF089581E195E0892B41F048
:1006B00080E090E0892B21F00E941105811125C076
:1006C0008BE795E0892B41F080E090E0892B21F0C9
:1006D0000E947B0581111CC085EE95E0892B41F0BD
:1006E00080E090E0892B21F00E94E505811113C084
:1006F0008FE496E0892BA1F080E090E0892B81F0D7
:100700000E944F0681110AC008950E940000D8CFB0
:100710000E940000E1CF0E940000EACF0C9400008C
:100720000895FC01848DDF01A80FB11DA35ABF4FAE
:100730002C91848D90E001968F739927848FA689E0
:10074000B7892C93A089B1898C9180648C93938D07
:10075000848D981306C00288F389E02D80818F7DF7
:1007600080830895CF93DF93EC01888D8823C9F0AF
:10077000EA89FB89808185FD05C0A889B9898C91AA
:1007800086FD0FC00FB607FCF5CF808185FFF2CF45
:10079000A889B9898C9185FFEDCFCE010E94910384
:1007A000E7CFDF91CF910895EF92FF920F931F93C0
:1007B000CF93DF93EC0181E0888F9B8D8C8D981314
:1007C00005C0E889F989808185FD24C0F62E0B8D4E
:1007D00010E00F5F1F4F0F731127E02E8C8DE81272
:1007E0000CC00FB607FCFACFE889F989808185FF34
:1007F000F5CFCE010E949103F1CF8B8DFE01E80F62
:10080000F11DE35AFF4FF0820B8FEA89FB8980814B
:10081000806207C0EE89FF896083E889F989808159
:100820008064808381E090E0DF91CF911F910F91F0
:10083000FF90EF900895CF92DF92EF92FF921F9377
:10084000CF93DF93EC016A017B01122FE889F989CC
:1008500082E080834115514E61057105B1F060E081
:1008600079E08DE390E0A70196010E94CF25DA019F
:10087000C9010197A109B109B695A79597958795E3
:10088000AC01411580E15807A8F0E889F989108288
:1008900060E874E88EE190E0A70196010E94CF2500
:1008A000BA01A9014150510961097109769567950D
:1008B00057954795EC85FD855083EE85FF854083F0
:1008C000188EEC89FD891083EA89FB89808180611B
:1008D0008083EA89FB89808188608083EA89FB893B
:1008E000808180688083EA89FB8980818F7D808315
:1008F000DF91CF911F91FF90EF90DF90CF900895FF
:10090000CF93DF93EC01E881F9810284F385E02D38
:100910001995EA89FB8980818F7E8083EA89FB892A
:100920008081877F8083EA89FB8980818F778083BC
:10093000EA89FB8980818F7D80838A8D898FDF9111
:10094000CF910895FC01538D448D252F30E0842FE5
:1009500090E0821B930B541710F0CF9608950197E7
:1009600008951F920F920FB60F9211240BB60F929B
:100970002F938F939F93EF93FF93E0918402F091D5
:1009800085028081E0918A02F0918B0282FD12C083
:10099000908180918D028F5F8F7320918E028217DC
:1009A00051F0E0918D02F0E0EC58FD4F958F80936F
:1009B0008D0201C08081FF91EF919F918F912F91C6
:1009C0000F900BBE0F900FBE0F901F9018951F92A7
:1009D0000F920FB60F9211240BB60F922F933F93E5
:1009E0004F935F936F937F938F939F93AF93BF9337
:1009F000EF93FF9384E792E00E949103FF91EF91C0
:100A0000BF91AF919F918F917F916F915F914F9126
:100A10003F912F910F900BBE0F900FBE0F901F9024
:100A2000189584E792E00E94260321E0892B09F4BF
:100A300020E0822F08951F920F920FB60F9211247B
:100A40000BB60F922F938F939F93EF93FF93E091A9
:100A50002103F09122038081E0912703F091280384
:100A600082FD12C0908180912A038F5F8F73209145
:100A70002B03821751F0E0912A03F0E0EF5EFC4F68
:100A8000958F80932A0301C08081FF91EF919F9100
:100A90008F912F910F900BBE0F900FBE0F901F9054
:100AA00018951F920F920FB60F9211240BB60F924A
:100AB0002F933F934F935F936F937F938F939F9366
:100AC000AF93BF93EF93FF9381E193E00E94910373
:100AD000FF91EF91BF91AF919F918F917F916F9116
:100AE0005F914F913F912F910F900BBE0F900FBED2
:100AF0000F901F90189581E193E00E94260321E05A
:100B0000892B09F420E0822F08951F920F920FB6CF
:100B10000F9211240BB60F922F938F939F93EF9305
:100B2000FF93E091BE03F091BF038081E091C40385
:100B3000F091C50382FD12C090818091C7038F5F41
:100B40008F732091C803821751F0E091C703F0E042
:100B5000E255FC4F958F8093C70301C08081FF91C0
:100B6000EF919F918F912F910F900BBE0F900FBE21
:100B70000F901F9018951F920F920FB60F9211248D
:100B80000BB60F922F933F934F935F936F937F9387
:100B90008F939F93AF93BF93EF93FF938EEA93E06E
:100BA0000E949103FF91EF91BF91AF919F918F911F
:100BB0007F916F915F914F913F912F910F900BBE5D
:100BC0000F900FBE0F901F9018958EEA93E00E9431
:100BD000260321E0892B09F420E0822F08951F923B
:100BE0000F920FB60F9211240BB60F922F938F9383
:100BF0009F93EF93FF93E0915B04F0915C048081FD
:100C0000E0916104F091620482FD12C090818091B4
:100C100064048F5F8F7320916504821751F0E09117
:100C20006404F0E0E55BFB4F958F8093640401C0A2
:100C30008081FF91EF919F918F912F910F900BBE2B
:100C40000F900FBE0F901F9018951F920F920FB626
:100C50000F9211240BB60F922F933F934F935F93F4
:100C60006F937F938F939F93AF93BF93EF93FF9374
:100C70008BE494E00E949103FF91EF91BF91AF91BB
:100C80009F918F917F916F915F914F913F912F91A4
:100C90000F900BBE0F900FBE0F901F9018958BE416
:100CA00094E00E94260321E0892B09F420E0822FA2
:100CB00008958F929F92AF92BF92CF92DF92EF9260
:100CC000FF920F931F93CF93DF937C018B016C01F5
:100CD00082E0C80ED11C4701E5E08E0E911CC0E0F9
:100CE000D0E0F60161916F014AE050E0C8010E9436
:100CF0007B0B5C016EE2C8010E943C0A8A0D9B1DC1
:100D0000C80FD91FC814D90461F74AE050E0F701B1
:100D10006581C8010E947B0B8C0F9D1FDF91CF91D5
:100D20001F910F91FF90EF90DF90CF90BF90AF9009
:100D30009F908F90089524E332E0FC01318320835B
:100D4000128213821482158208950F93FC0184E3AA
:100D500092E09183808362834383248305830F9190
:100D6000089524E332E0FC013183208342835383DE
:100D700064837583089524E332E0FC01318320838A
:100D8000FB014081518162817381FC014283538365
:100D9000648375830895DC0190E020E030E08AE010
:100DA000FB014191BF01442309F150ED540F5A302A
:100DB00088F4829FF001839FF00D11249F0120533E
:100DC0003109240F311D47FD3A952F3F310541F37D
:100DD00038F312C04E3281F4933071F0FD01E90F07
:100DE000F11D22839F5F20E030E0DACF933021F4C1
:100DF00015962C9381E0089580E00895FB014081D1
:100E0000518162817381FC014283538364837583C2
:100E10000895FC01428353836483758308959B0185
:100E2000BC016E5F7F4F44E050E0C9010E94322B4D
:100E300021E0892B09F020E0822F08950F93FC0117
:100E4000648B458B268B078B0F910895CF93DF938F
:100E5000EC0160E08E810E94D02281E090E00E944F
:100E6000E02061E08E810E94D02281E090E00E942B
:100E7000E02060E08E810E94D02284E690E0DF9145
:100E8000CF910C94E020CF92DF92EF92FF920F93DC
:100E90001F93CF93DF937C016C0187E0C80ED11CB8
:100EA000C0E0D0E0062F10E0B8010C2E02C075950E
:100EB00067950A94E2F76170F60181916F010E94D3
:100EC000D0222196C430D10579F7C701DF91CF91A7
:100ED0001F910F91FF90EF90DF90CF900C94260719
:100EE000CF92DF92EF92FF920F931F93CF93DF93F6
:100EF0007C016C0187E0C80ED11CC0E0D0E0062F59
:100F000010E0B8010C2E02C0759567950A94E2F7BF
:100F10006170F60181916F010E94D0222196C83044
:100F2000D10579F7C701DF91CF911F910F91FF9004
:100F3000EF90DF90CF900C9426071F93CF93DF9311
:100F4000EC01162F642F8C810E94D0228D818F3F5F
:100F500019F060E00E94D0228F85612F84FF06C0C7
:100F6000CE01DF91CF911F910C94700770E084E067
:100F7000759567958A95E1F7CE010E944307612F29
:100F8000CE01DF91CF911F910C94430761E00E9445
:100F9000992580ED97E00C94E02062E00E9499256D
:100FA00080ED97E00C94E020FC01443008F043E031
:100FB0008389481710F04FEF480FDF01A40FB11DD0
:100FC00054969C91690F6068CF010C949925FC019F
:100FD00060896B7F608B68600C949925FC01608947
:100FE000262F2460208B6C600C949925EF92FF9241
:100FF0000F931F93CF93DF93EC01423018F08F854E
:1010000088608F874B8B1C8A80E48D8B6E8B70E0A1
:10101000605C7F4F6F8B222329F0413019F48F855C
:1010200084608F8761E08C810E9494228D818F3F44
:1010300019F061E00E94942261E08E810E94942266
:101040007E0187E0E80EF11C00E010E08F8584FD52
:1010500003C084E090E002C088E090E00817190720
:101060004CF461E0F70181917F010E9494220F5FAF
:101070001F4FECCF80E593EC0E94E02060E08C8174
:101080000E94D02260E08E810E94D0228D818F3F0D
:1010900019F060E00E94D0226F8564FD1DC063E0FE
:1010A000CE010E94430784E991E10E94E02063E0C1
:1010B000CE010E94430784E991E10E94E02063E0B1
:1010C000CE010E94430786E990E00E94E02062E0A2
:1010D000CE010E94430716C06062CE010E9499258E
:1010E00084E991E10E94E0206F856062CE010E9458
:1010F000992586E990E00E94E0206F856062CE012C
:101100000E9499256F856062CE010E94992584E036
:10111000888BCE010E94EE07CE010E94C60782E0B6
:10112000898B66E0CE01DF91CF911F910F91FF90E7
:10113000EF900C9499258F92AF92CF92EF920F93EC
:10114000CF93DF93CDB7DEB7FC015B853C859D85F2
:101150008E85448325830683E782C086A1868286A6
:101160005387348795878687662311F0178602C0D8
:1011700080E1878720E041E060E1CF01DF91CF91FE
:101180000F91EF90CF90AF908F900C94F6078F92C5
:10119000AF92CF92EF920F93CF93DF93CDB7DEB79D
:1011A000FC013B859C858D8513821282AAE3B2E007
:1011B000B183A0836483458326830783E086C18649
:1011C000A286838634879587868780E1878720E09B
:1011D00041E060E1CF01DF91CF910F91EF90CF908F
:1011E000AF908F900C94F6078F92AF92CF92EF92C0
:1011F0000F93CF93DF93CDB7DEB7FC019B858C8532
:1012000013821282AAE3B2E0B183A08364833FEF2A
:101210003583468327830087E186C286A38684863A
:101220009587868780E1878720E041E060E1CF01F4
:10123000DF91CF910F91EF90CF90AF908F900C9462
:10124000F607AF92CF92EF920F93FC0113821282B6
:101250008AE392E0918380836483458326830783B6
:10126000E086C186A28613861486158616861786A2
:1012700020E041E060E1CF010F91EF90CF90AF907F
:101280000C94F607CF92EF920F93FC011382128217
:101290008AE392E09183808364838FEF8583468322
:1012A00027830087E186C2861386148615861686F4
:1012B000178620E041E060E1CF010F91EF90CF90E1
:1012C0000C94F607FC0160896D7F608B68600C945C
:1012D0009925FC016089262F2260208B6A600C947E
:1012E0009925FC0160896E7F608B68600C9499255C
:1012F000FC016089262F2160208B69600C94992560
:1013000068E10C9499256CE10C949925FC016189A4
:10131000262F2260218B66600C949925FC0161893F
:101320006D7F618B64600C949925FC016189262F87
:101330002160218B65600C949925FC0161896E7F89
:10134000618B64600C949925CF92DF92EF92FF92AB
:101350000F931F93CF93DF931F921F92CDB7DEB7EA
:101360008C01677088E0689FB00111246064C80137
:1013700049835A830E9499254981C42E5A81D52ECA
:101380007601A8E0EA0EF11CF60161916F01D80127
:10139000ED91FC910190F081E02DC8011995CE14DA
:1013A000DF0491F70F900F90DF91CF911F910F9174
:1013B000FF90EF90DF90CF900895CF92DF92EF9261
:1013C000FF920F931F93CF93DF936C017A018B01F0
:1013D000C0E0D0E0CE15DF0589F0D8016D918D0118
:1013E000D601ED91FC910190F081E02DC601199597
:1013F000892B11F47E0102C02196ECCFC701DF9149
:10140000CF911F910F91FF90EF90DF90CF900895B3
:10141000EF92FF920F931F93CF93DF938C017B0189
:10142000C0E0D0E0F701EC0FFD1F6491662361F08E
:10143000D801ED91FC910190F081E02DC801199542
:10144000892B11F02196EECFCE01DF91CF911F9124
:101450000F91FF90EF900895DC01ED91FC91DB017D
:1014600014964D915C9115976D917C910280F3815A
:10147000E02D19940C94A225DC01ED91FC910190D2
:10148000F081E02D1994DB01ED91FC911197019011
:10149000F081E02DBC01CD0119946EE372E00C9453
:1014A000A2250F931F93CF93DF93EC010E94080AAC
:1014B0008C01CE010E944D0A800F911FDF91CF91C8
:1014C0001F910F9108950F931F93CF93DF93EC011A
:1014D0000E942C0A8C01CE010E944D0A800F911FA0
:1014E000DF91CF911F910F9108950F931F93CF9389
:1014F000DF93EC010E94A2258C01CE010E944D0ACF
:10150000800F911FDF91CF911F910F9108950F933D
:101510001F93CF93DF93EC010E943C0A8C01CE0114
:101520000E944D0A800F911FDF91CF911F910F9163
:1015300008950F931F93CF93DF93EC010E94430A0A
:101540008C01CE010E944D0A800F911FDF91CF9137
:101550001F910F9108954F925F926F927F92EF9239
:10156000FF920F931F93CF93DF93CDB7DEB7A19771
:101570000FB6F894DEBF0FBECDBF7C01FA01CB01E0
:1015800019A2223008F42AE08E010F5D1F4F422E6F
:10159000512C612C712CBF01A30192010E94CF2517
:1015A000F901CA01015011096A3014F4605D01C0EB
:1015B000695CD8016C93232B242B252B61F7B80190
:1015C000C7010E94A225A1960FB6F894DEBF0FBEF8
:1015D000CDBFDF91CF911F910F91FF90EF907F9042
:1015E0006F905F904F900895CF92DF92EF92FF92AD
:1015F0000F931F93CF93DF93EC016A017B012115B9
:10160000310579F4E881F9810190F081E02D642FB2
:10161000DF91CF911F910F91FF90EF90DF90CF90CE
:1016200019942A303105E9F477FF1AC06DE20E945F
:101630003C0A8C0144275527BA014C195D096E09F3
:101640007F092AE0CE010E94AB0A800F911FDF9133
:10165000CF911F910F91FF90EF90DF90CF90089561
:101660002AE0B701A601CE01DF91CF911F910F9122
:10167000FF90EF90DF90CF900C94AB0A9A01AB01F2
:10168000770F660B770B0C94F40A0F931F93CF938D
:10169000DF93EC019A01AB01770F660B770B0E9489
:1016A000F40A8C01CE010E944D0A800F911FDF9138
:1016B000CF911F910F9108950F931F93CF93DF93B5
:1016C000EC010E94F40A8C01CE010E944D0A800FA9
:1016D000911FDF91CF911F910F9108952115310531
:1016E00041F4DC01ED91FC910190F081E02D642F3B
:1016F00019940C94AB0A9A01462F50E060E070E018
:101700000C946E0B0F931F93CF93DF93EC019A0110
:10171000462F50E060E070E00E946E0B8C01CE011D
:101720000E944D0A800F911FDF91CF911F910F9161
:1017300008959A01AB0160E070E00C946E0B0F937A
:101740001F93CF93DF93EC019A01AB0160E070E04F
:101750000E946E0B8C01CE010E944D0A800F911FDA
:10176000DF91CF911F910F9108950F931F93CF9306
:10177000DF93EC010E946E0B8C01CE010E944D0A9A
:10178000800F911FDF91CF911F910F9108954F927C
:101790005F926F927F928F929F92AF92BF92CF9201
:1017A000DF92EF92FF92CF93DF93EC016A017B010E
:1017B000B22E9A01AB01C701B6010E944A288823C4
:1017C00019F061E472E027C026013701E89477F848
:1017D0002FEF3FEF4FE75FE7C301B2010E944A28B6
:1017E00081110DC02FEF3FEF4FE75FE7C301B2015B
:1017F0000E94992618161CF465E472E00CC02FEFC5
:101800003FEF4FE75FE4C701B6010E94E3271816D8
:101810009CF469E472E0CE01DF91CF91FF90EF90EC
:10182000DF90CF90BF90AF909F908F907F906F9000
:101830005F904F900C94A2252FEF3FEF4FE75FECA6
:10184000C701B6010E94992687FDE3CF20E030E072
:10185000A901C701B6010E94992687FF0AC06DE25F
:10186000CE010E943C0A4C01F7FAF094F7F8F0948C
:1018700002C0812C912CA12C60E070E080E09FE3FD
:10188000AB1441F020E030E040E251E40E949D269C
:10189000A394F6CF9B01AC01C701B6010E94352687
:1018A0002B013C010E9405276B017C010E9431271E
:1018B0009B01AC01C301B2010E9434262B013C0103
:1018C0002AE0B701A601CE010E94AB0A7C01E80C18
:1018D000F91CBB2031F06EE2CE010E943C0AE80EFA
:1018E000F91EDB2CDD2029F120E030E040E251E45C
:1018F000C301B2010E94E7272B013C010E9405278A
:101900004B01A12CB12C2AE0B501A401CE010E940B
:10191000AB0AE80EF91EC501B4010E9431279B01F4
:10192000AC01C301B2010E9434262B013C01DA94C0
:10193000D9CFC701DF91CF91FF90EF90DF90CF908B
:10194000BF90AF909F908F907F906F905F904F90DF
:1019500008950C94C70B0F931F93CF93DF93EC0163
:101960000E94C70B8C01CE010E944D0A800F911F6F
:10197000DF91CF911F910F9108950F931F93CF93F4
:10198000DF93EC010E947420688779878A879B87A0
:10199000E881F9810680F781E02DCE01199597FF46
:1019A00017C00E947420088519852A853B85DC01B3
:1019B000CB01801B910BA20BB30B0C811D812E81DF
:1019C0003F8180179107A207B30710F38FEF9FEFB6
:1019D000DF91CF911F910F9108950F931F93CF9394
:1019E000DF93EC010E947420688779878A879B8740
:1019F000E881F9810084F185E02DCE01199597FFEA
:101A000017C00E947420088519852A853B85DC0152
:101A1000CB01801B910BA20BB30B0C811D812E817E
:101A20003F8180179107A207B30710F38FEF9FEF55
:101A3000DF91CF911F910F910895FF920F931F9304
:101A4000CF93DF93EC018B01F42ECE010E94ED0CBD
:101A50009C0197FD0BC08D32910541F0C0970A970C
:101A600028F0FF2029F02E32310511F4C9011DC0E4
:101A700001301105C1F00230110569F42D30310536
:101A800051F034F4295031092230310520F00BC0D7
:101A90002032310541F4E881F9810680F781E02D9B
:101AA000CE011995D2CF8FEF9FEFDF91CF911F918C
:101AB0000F91FF900895FC014483558366837783DB
:101AC00008958F929F92AF92BF92CF92DF92FF9232
:101AD0000F931F93CF93DF9300D01F92CDB7DEB744
:101AE0008C01B42E40E00E941D0DFC0197FD4CC0FE
:101AF00020E030E0A901F12CCB2CBB0CDD08EC156B
:101B0000FD05F1F0ED32F105C9F0CF01C0970A975C
:101B1000B8F4AAE0B0E00E9416264F01FF0FAA0811
:101B2000BB08DC01CB01880D991DAA1DBB1D9C01C2
:101B3000AD01205331094109510902C0FF24F3943A
:101B4000D801ED91FC910680F781E02DC801298331
:101B50003A834B835C831995C8010E94ED0CFC010C
:101B6000C09729813A814B815C810A9740F2EC153C
:101B7000FD0529F2FF2061F066277727CB01621B64
:101B8000730B840B950B06C060E070E0CB0102C0C4
:101B9000CA01B9010F900F900F900F90DF91CF9174
:101BA0001F910F91FF90DF90CF90BF90AF909F90CB
:101BB0008F9008954F925F926F927F92AF92BF92F3
:101BC000CF92DF92EF92FF920F931F93CF93DF9309
:101BD0005C01042F41E00E941D0DFC0197FD6EC0C9
:101BE000412C512C80E8682E8FE3782EC12CD12C0B
:101BF0007601C0E0D0E0002E000C110BE017F107D9
:101C000069F1ED32F10539F1EE32F10531F1CF0133
:101C1000C0970A9718F5AAE0B0E0A70196010E94C4
:101C200016266F01FF0FEE08FF08C60ED71EE81E2E
:101C3000F91E80E3C81AD108E108F108CC2371F03D
:101C40002DEC3CEC4CEC5DE3C301B2010E94E727B4
:101C50002B013C0103C0D1E001C0C1E0D501ED91F1
:101C6000FC910680F781E02DC5011995C5010E9400
:101C7000ED0CFC01C0970A9708F2EE32F10519F459
:101C8000CC2309F4BBCFE017F10709F4B7CFC701A4
:101C9000B601DD2339F090958095709561957F4F61
:101CA0008F4F9F4FCC2339F00E943327A30192011D
:101CB0000E94E72706C00E94332703C060E070E05F
:101CC000CB01DF91CF911F910F91FF90EF90DF90AB
:101CD000CF90BF90AF907F906F905F904F9008959E
:101CE000CF92DF92EF92FF920F931F93CF93DF93E8
:101CF0006C017A018B01C0E0D0E0CE15DF0561F008
:101D0000C6010E94BD0C97FF02C07E0105C0F8010C
:101D100081938F012196F1CFC701DF91CF911F9160
:101D20000F91FF90EF90DF90CF900895AF92BF9208
:101D3000CF92DF92EF92FF920F931F93CF93DF9397
:101D400021153105D1F079015C016A01C0E0D0E0D4
:101D5000062F660F110BC5010E94BD0C97FF02C034
:101D6000CE010DC080179107D9F3F60181936F0161
:101D70002196CE15DF0579F7F3CF80E090E0DF9173
:101D8000CF911F910F91FF90EF90DF90CF90BF9078
:101D9000AF9008950F931F93CF93DF93EC018B01C6
:101DA00060E472E00E943B17C8010E94BD0C97FDE1
:101DB00005C0682FCE010E946F19F6CFCE01DF91CA
:101DC000CF911F910F910895EF92FF920F931F9360
:101DD000CF93DF93EC017B01042F60E472E00E945B
:101DE0003B17C7010E94BD0C002E000C110B97FD84
:101DF0000BC08017910741F0682FCE010E946F1928
:101E0000C7010E94BD0CF3CFCE01DF91CF911F918E
:101E10000F91FF90EF9008954F925F926F927F9293
:101E20008F929F92AF92BF92CF92DF92EF92FF92EA
:101E30000F931F93CF93DF938C01EB0186E0849F78
:101E40004001859F900C1124860E971EFB01E8151A
:101E5000F90508F582819381892B21F13696F7CF18
:101E60006081718144815581DB01A40FB51F2C91E4
:101E7000022E000C330B8217930711F54F5F5F4F53
:101E800055834483228133814217530759F0369694
:101E9000E815F90528F3C8010E94BD0C97FD46C05E
:101EA000FE01F6CFEC1BFD0BF595E7952BEA3AEA20
:101EB000E29FC001E39F900DF29F900D112438C066
:101EC0004115510521F3C480D58096012150310977
:101ED00035832483DB01A20FB31FAC910A2E000CC3
:101EE000BB0B8A179B07F9F421153105C9F05B017B
:101EF0007A01E21AF30AE60EF71E412C512CD501A5
:101F00006D905D01D7017D907D01671006C0BFEF28
:101F10004B1A5B0A4216530690F34216530699F683
:101F2000D582C482B4CF232B71F6B1CF8FEF9FEF50
:101F3000DF91CF911F910F91FF90EF90DF90CF90A5
:101F4000BF90AF909F908F907F906F905F904F90D9
:101F50000895CF93DF9300D000D0CDB7DEB7FE0158
:101F6000319626E0DF011D922A95E9F77A8369838D
:101F70005C834B8341E050E0BF010E940C0F21E0E5
:101F8000892B09F020E0822F26960FB6F894DEBF49
:101F90000FBECDBFDF91CF9108950C94A90FFB0127
:101FA00001900020E9F73197AF01461B570B0C94C5
:101FB000A90FFF920F931F93CF93DF93CDB7DEB797
:101FC0002C970FB6F894DEBF0FBECDBF211531059B
:101FD00021F40E94A90F282F19C0FE013196ACE010
:101FE000FA2EDF011D92FA94E9F77A8369835C8304
:101FF0004B8338872F831A87098742E050E0BF015F
:102000000E940C0F21E0892B09F020E0822F2C96F2
:102010000FB6F894DEBF0FBECDBFDF91CF911F91F9
:102020000F91FF9008950F931F939A01FA01019069
:102030000020E9F731978F01041B150BFB0101907C
:102040000020E9F73197AF01461B570B0E94D90FCB
:102050001F910F9108953F924F925F926F927F92DE
:102060008F929F92AF92BF92CF92DF92EF92FF92A8
:102070000F931F93CF93DF9300D01F92CDB7DEB79E
:1020800029013A0190910002981721F09F3F09F031
:1020900032C304C0E8E5F2E0349004C1809300024A
:1020A000E8E5F2E0E491EF3F09F425C3E23009F4FA
:1020B00080C074F5EE2309F45BC0E13009F0F1C093
:1020C000109280001092810090918100986090930E
:1020D000810090918100916090938100282F30E0E1
:1020E000F901EB51FD4FE491F0E0EE0FFF1FEB5BC8
:1020F000FC4F4591549150930C0540930B05F90109
:10210000E156FD4FE491E0930A0533243394CCC0AB
:10211000E43009F49EC00CF474C0E53009F0C1C08D
:1021200010922001109221019091210198609093CA
:10213000210190912101916090932101482F50E05D
:10214000FA01EB51FD4FE491F0E0EE0FFF1FEB5B66
:10215000FC4F259134913093F0042093EF04FA0161
:10216000E156FD4FE491E093EE04B5E03B2E9CC0B8
:1021700014BC15BC94B5926094BD95B5916095BDA5
:10218000282F30E0F901EB51FD4FE491F0E0EE0F24
:10219000FF1FEB5BFC4F4591549150931305409307
:1021A0001205F901E156FD4FE491E0931105312C40
:1021B0007BC01092B0001092B1009091B00092607C
:1021C0009093B0009091B10091609093B100282F4E
:1021D00030E0F901EB51FD4FE491F0E0EE0FFF1F0D
:1021E000EB5BFC4F459154915093050540930405DA
:1021F000F901E156FD4FE491E093030552E0352EDD
:1022000053C01092900010929100909191009860AC
:102210009093910090919100916090939100282F5C
:1022200030E0F901EB51FD4FE491F0E0EE0FFF1FBC
:10223000EB5BFC4F459154915093FE044093FD0499
:10224000F901E156FD4FE491E093FC0423E0322EC6
:102250002BC01092A0001092A1009091A100986054
:102260009093A1009091A10091609093A100282FDC
:1022700030E0F901EB51FD4FE491F0E0EE0FFF1F6C
:10228000EB5BFC4F459154915093F7044093F60457
:10229000F901E156FD4FE491E093F50404E0302E9E
:1022A00003C03E2E37FC27C28B0161E00E949422BE
:1022B0004801A12CB12C832D8D7F09F0BBC060E0BB
:1022C00072E18AE790E0A50194010E94F12529833B
:1022D0003A834B835C8369017A0121E0C21AD108F9
:1022E000E108F1088FEFC816D104E104F10409F008
:1022F00008F44CC060E472E48FE090E0A501940122
:102300000E94F12569017A0191E0C91AD108E1081A
:10231000F108E2E03E1220C0FFEFCF16D104E10445
:10232000F10409F008F4E5C160E970ED83E090E0A4
:10233000A50194010E94F12569017A0181E0C81A82
:10234000D108E108F1089FEFC916D104E104F104B6
:1023500009F0D0F583E067C0EFEFCE16D104E104B9
:10236000F104B1F0A8F068E478EE81E090E0A50116
:1023700094010E94F12569017A01F1E0CF1AD10898
:10238000E108F108332009F45AC1AAC181E001C073
:1023900082E03320A1F047C089819A81AB81BC8162
:1023A0002AE0B595A795979587952A95D1F76C0161
:1023B0007D01F1E0CF1AD108E108F10885E095B57B
:1023C000987F892B85BDA6C068E478EE81E090E017
:1023D000A50194010E94F12569017A0181E0C81AE2
:1023E000D108E108F1089FEFC916D104E104F10416
:1023F00009F008F422C164E274EF80E090E0A501E6
:1024000094010E94F12569017A0181E0C81AD1087E
:10241000E108F1089FEFC916D104E104F10411F0BD
:1024200008F02FC185E09091B100987F892B8093AF
:10243000B10070C060E072E18AE790E0A50194010C
:102440000E94F12569017A01F1E0CF1AD108E10873
:10245000F108C114D10421E0E206F10488F068E437
:1024600078EE81E090E0A50194010E94F1256901D8
:102470007A0181E0C81AD108E108F10883E001C0BF
:1024800081E091E0391210C090918100987F892BF2
:1024900080938100411451046104710409F03FC02C
:1024A0002FEF3FEFA90171C0E3E03E120FC0909102
:1024B0009100987F892B809391004114510461040D
:1024C000710469F52FEF3FEFA90181C0F4E03F12DD
:1024D0000FC09091A100987F892B8093A100411497
:1024E000510461047104D9F42FEF3FEFA90181C0B9
:1024F00025E032120FC090912101987F892B8093A3
:102500002101411451046104710449F42FEF3FEF9C
:10251000A90181C0411451046104710471F0D80112
:10252000AA0FBB1FA30192010E94162628EE33E0DA
:1025300040E050E00E94CF2503C02FEF3FEFA901FC
:1025400082E03816A1F1831534F0332079F091E060
:102550003916D9F0D0C0E4E03E1609F44AC03E1660
:10256000B4F1F5E03F1609F456C0C5C0C7BC2093CE
:102570001405309315054093160550931705809167
:102580006E00826080936E00B6C0D0928900C092C7
:10259000880020930D0530930E0540930F0550934E
:1025A000100580916F00826080936F00A4C0C0927C
:1025B000B300209306053093070540930805509318
:1025C00009058091700082608093700094C0D09261
:1025D0009900C09298002093FF0430930005409327
:1025E0000105509302058091710082608093710013
:1025F00082C0D092A900C092A8002093F804309322
:10260000F9044093FA045093FB04809172008260B5
:102610008093720070C0D0922901C092280120934B
:10262000F1043093F2044093F3045093F404809146
:1026300073008260809373005EC084E0F4CE2FEF5D
:10264000C216D104E104F104D1F0C8F062E17AE7E6
:1026500080E090E0A50194010E94F12569017A01D2
:10266000E1E0CE1AD108E108F108FFEFCF16D1045E
:10267000E104F10411F008F08FCE84E0A0CE83E0F5
:102680009ECE62E17AE780E090E0A50194010E948D
:10269000F12569017A0181E0C81AD108E108F10841
:1026A0009FEFC916D104E104F104C1F0B8F08981AB
:1026B0009A81AB81BC814AE0B595A795979587959E
:1026C0004A95D1F76C017D01E1E0CE1AD108E1080D
:1026D000F108332009F472CE87E0A5CE86E059CE0A
:1026E000EFEFCE16D104E104F10409F050F684E0D6
:1026F00050CE82E098CE0F900F900F900F90DF9108
:10270000CF911F910F91FF90EF90DF90CF90BF90EE
:10271000AF909F908F907F906F905F904F903F9081
:1027200008958230A9F028F4882349F0813051F0CF
:102730000895843021F1E8F0853039F10895109240
:102740006E00089580916F008D7F80936F000895D3
:10275000809170008D7F8093700081E08093B00045
:102760008091B100887F84608093B1001092B300A3
:102770000895809171008D7F8093710008958091FC
:1027800072008D7F809372000895809173008D7F19
:10279000809373000895CF93C82F809100028C130B
:1027A00007C0E8E5F2E0E4918FEF8093000201C0FA
:1027B000EFEF8E2F0E94911360E08C2FCF910C943D
:1027C000D0221F920F920FB60F9211240BB60F92C8
:1027D0002F933F934F935F936F937F938F939F9329
:1027E000AF93BF93EF93FF938091060590910705F8
:1027F000A0910805B0910905892B8A2B8B2B51F1EB
:1028000080910305E0910405F091050590818927E9
:1028100080838091060590910705A0910805B091ED
:102820000905181619061A061B06C4F48091060538
:1028300090910705A0910805B09109050197A1099C
:10284000B1098093060590930705A0930805B093FE
:10285000090504C0809100020E94CB13FF91EF9103
:10286000BF91AF919F918F917F916F915F914F91A8
:102870003F912F910F900BBE0F900FBE0F901F90A6
:1028800018950895883008F070C0A82FB0E0AA0FFE
:10289000BB1FAF5FBD4F11967C936E9390E0FC0120
:1028A0003197E730F105A0F58827EE58FF4F8F4F9D
:1028B0000C941026809169008C7F482B409369000E
:1028C000E89A089580916900440F551F440F551FE1
:1028D000837F482B40936900E99A089580916900AD
:1028E00074E0440F551F7A95E1F78F7C482B409395
:1028F0006900EA9A08958091690066E0440F551FC7
:102900006A95E1F78F73482B40936900EB9A08951D
:1029100080916A008C7F482B40936A00EC9A08955E
:1029200080916A00440F551F440F551F837F482B29
:1029300040936A00ED9A089580916A0024E0440F64
:10294000551F2A95E1F78F7C482B40936A00EE9A39
:10295000089580916A0096E0440F551F9A95E1F71B
:102960008F73482B40936A00EF9A0895982F883010
:1029700030F5482F50E0FA013197E730F10570F457
:102980008827E758FF4F8F4F0C941026E8980DC00A
:10299000E9980BC0EA9809C0EB9807C0EC9805C00D
:1029A000ED9803C0EE9801C0EF98E92FF0E0EE0F2C
:1029B000FF1FEF5FFD4F81E494E1918380830895D1
:1029C0001F920F920FB60F9211240BB60F922F93F6
:1029D0003F934F935F936F937F938F939F93AF93A7
:1029E000BF93EF93FF93E0910502F09106021995D2
:1029F000FF91EF91BF91AF919F918F917F916F91D7
:102A00005F914F913F912F910F900BBE0F900FBE92
:102A10000F901F9018951F920F920FB60F921124CE
:102A20000BB60F922F933F934F935F936F937F93C8
:102A30008F939F93AF93BF93EF93FF93E091070220
:102A4000F09108021995FF91EF91BF91AF919F917D
:102A50008F917F916F915F914F913F912F910F9047
:102A60000BBE0F900FBE0F901F9018951F920F92E4
:102A70000FB60F9211240BB60F922F933F934F93E3
:102A80005F936F937F938F939F93AF93BF93EF93D6
:102A9000FF93E0910902F0910A021995FF91EF91DD
:102AA000BF91AF919F918F917F916F915F914F9166
:102AB0003F912F910F900BBE0F900FBE0F901F9064
:102AC00018951F920F920FB60F9211240BB60F920A
:102AD0002F933F934F935F936F937F938F939F9326
:102AE000AF93BF93EF93FF93E0910B02F0910C0231
:102AF0001995FF91EF91BF91AF919F918F917F9128
:102B00006F915F914F913F912F910F900BBE0F905E
:102B10000FBE0F901F9018951F920F920FB60F9235
:102B200011240BB60F922F933F934F935F936F93A4
:102B30007F938F939F93AF93BF93EF93FF93E09116
:102B40000102F09102021995FF91EF91BF91AF91AF
:102B50009F918F917F916F915F914F913F912F91B5
:102B60000F900BBE0F900FBE0F901F9018951F92E5
:102B70000F920FB60F9211240BB60F922F933F9323
:102B80004F935F936F937F938F939F93AF93BF9375
:102B9000EF93FF93E0910302F09104021995FF91E6
:102BA000EF91BF91AF919F918F917F916F915F91C5
:102BB0004F913F912F910F900BBE0F900FBE0F9032
:102BC0001F9018951F920F920FB60F9211240BB6FB
:102BD0000F922F933F934F935F936F937F938F93B6
:102BE0009F93AF93BF93EF93FF93E0910D02F0910A
:102BF0000E021995FF91EF91BF91AF919F918F9127
:102C00007F916F915F914F913F912F910F900BBEEC
:102C10000F900FBE0F901F9018951F920F920FB636
:102C20000F9211240BB60F922F933F934F935F9304
:102C30006F937F938F939F93AF93BF93EF93FF9384
:102C4000E0910F02F09110021995FF91EF91BF9161
:102C5000AF919F918F917F916F915F914F913F9134
:102C60002F910F900BBE0F900FBE0F901F901895D5
:102C7000611571058105910511F00C94E8290895FD
:102C8000CF93DF9300D01F92CDB7DEB761157105EA
:102C90008105910579F09B01AC0169833A834B83EF
:102CA0005C830E94E42929813A814B815C810E94E6
:102CB000F12503C060E070E0CB010F900F900F9002
:102CC0000F90DF91CF910895CF92DF92EF92FF9214
:102CD0000F931F93621773078407950784F4890184
:102CE0009A016B017C01C901B8016C197D098E093B
:102CF0009F090E9440166C0D7D1D8E1D9F1D1F910A
:102D00000F91FF90EF90DF90CF9008954F925F92D8
:102D10006F927F92AF92BF92CF92DF92EF92FF922B
:102D20000F931F93CF93DF93CDB7DEB729013A01FD
:102D30009B01AC0124193509460957098A899B89E9
:102D4000AC89BD89BC01CD016A197B098C099D093B
:102D50000E94BF25A8019701241935094609570982
:102D60000E94F125CA01B9016A0D7B1D8C1D9D1DB4
:102D7000DF91CF911F910F91FF90EF90DF90CF9057
:102D8000BF90AF907F906F905F904F90089508959F
:102D900070E09B01382BC9010895FC01808191816D
:102DA0000C940729CF93DF93EC01888199810097D8
:102DB00011F00E940729198218821D821C821B8231
:102DC0001A82DF91CF9108950F931F93CF93DF93D2
:102DD000EC018B016F5F7F4F888199810E94F129FF
:102DE000009731F0998388831B830A8381E001C0B7
:102DF00080E0DF91CF911F910F910895CF93DF93E2
:102E0000EC0188819981892B29F08A819B81861721
:102E1000970760F4CE010E94E416882341F08C816C
:102E20009D81892B19F4E881F981108281E0DF917D
:102E3000CF910895EF92FF920F931F93CF93DF935B
:102E4000EC017B018A01BA010E94FE16811104C0C7
:102E5000CE010E94D21607C01D830C83B701888162
:102E600099810E946E2BCE01DF91CF911F910F911E
:102E7000FF90EF900895FC0111821082138212825C
:102E8000158214826115710551F0FB01019000203B
:102E9000E9F73197AF01461B570B0C941A170895A9
:102EA000EF92FF920F931F93CF93DF93EC017B017F
:102EB0008A01BA010E94FE16811104C0CE010E944F
:102EC000D21607C01D830C83B701888199810E94A7
:102ED000222BCE01DF91CF911F910F91FF90EF90A8
:102EE0000895CF93DF93EC01FB018617970761F0FC
:102EF000608171816115710529F0448155810E94BD
:102F00001A1702C00E94D216CE01DF91CF91089508
:102F1000FC011182108213821282158214820C9499
:102F20007117CF93DF93EC016115710559F0FB0127
:102F300001900020E9F73197AF01461B570B0E9423
:102F40001A1702C00E94D216CE01DF91CF910895C8
:102F5000CF93DF931F921F92CDB7DEB7FC01118292
:102F60001082138212821582148269831A82BE0132
:102F70006F5F7F4F0E9491170F900F90DF91CF915D
:102F800008950F931F93CF93DF93CDB7DEB72997A3
:102F90000FB6F894DEBF0FBECDBF8C01862FF801AF
:102FA00011821082138212821582148250E0BE01B7
:102FB0006F5F7F4F90E00E94292CBE016F5F7F4FB3
:102FC000C8010E94911729960FB6F894DEBF0FBE74
:102FD000CDBFDF91CF911F910F9108950F931F9354
:102FE000CF93DF93CDB7DEB762970FB6F894DEBF0D
:102FF0000FBECDBF8C01CB01F8011182108213826C
:1030000012821582148250E0BE016F5F7F4F0E94D2
:10301000B72BBE016F5F7F4FC8010E949117629668
:103020000FB6F894DEBF0FBECDBFDF91CF911F91D9
:103030000F9108950F931F93CF93DF93CDB7DEB712
:1030400061970FB6F894DEBF0FBECDBF8C01CB01E8
:10305000F80111821082138212821582148250E0CC
:10306000BE016F5F7F4F0E94292CBE016F5F7F4FB3
:10307000C8010E94911761960FB6F894DEBF0FBE8B
:10308000CDBFDF91CF911F910F9108950F931F93A3
:10309000CF93DF93CDB7DEB7A2970FB6F894DEBF1C
:1030A0000FBECDBF8C01CB01BA01F8011182108295
:1030B000138212821582148230E0AE014F5F5F4F9F
:1030C0000E94CD2BBE016F5F7F4FC8010E949117F8
:1030D000A2960FB6F894DEBF0FBECDBFDF91CF91A1
:1030E0001F910F9108950F931F93CF93DF93CDB747
:1030F000DEB7A1970FB6F894DEBF0FBECDBF8C012F
:10310000CB01BA01F801118210821382128215825A
:10311000148230E0AE014F5F5F4F0E94FC2BBE0176
:103120006F5F7F4FC8010E949117A1960FB6F89468
:10313000DEBF0FBECDBFDF91CF911F910F910895DC
:10314000EF92FF920F931F93CF93DF93CDB7DEB72C
:10315000A1970FB6F894DEBF0FBECDBF7C01CB01A7
:10316000BA01F70111821082138212821582148231
:1031700042E0420F8E010F5F1F4F0E944E28BC019C
:10318000C7010E949117A1960FB6F894DEBF0FBE3B
:10319000CDBFDF91CF911F910F91FF90EF900895D8
:1031A000EF92FF920F931F93CF93DF93CDB7DEB7CC
:1031B000A1970FB6F894DEBF0FBECDBF7C01CB0147
:1031C000BA01F701118210821382128215821482D1
:1031D00042E0420F8E010F5F1F4F0E944E28BC013C
:1031E000C7010E949117A1960FB6F894DEBF0FBEDB
:1031F000CDBFDF91CF911F910F91FF90EF90089578
:103200000F931F93CF93DF931F921F92CDB7DEB71B
:103210008C016115710561F0CB0169837A830E948D
:10322000292BAC0169817A81C8010E94501702C024
:103230000E94D216C8010F900F90DF91CF911F917D
:103240000F910895FC01118210821382128215825F
:1032500014820C940019EF92FF920F931F93CF9357
:10326000DF93FC01248135816115710511F480E043
:1032700019C041155105A9F07B01EC018A01020F2B
:10328000131FB8010E94FE16882389F32881398113
:103290008C819D81B701820F931F0E946E2B1D832D
:1032A0000C8381E0DF91CF911F910F91FF90EF9000
:1032B0000895FB0144815581608171810C942B1923
:1032C0006115710551F0FB0101900020E9F731977C
:1032D000AF01461B570B0C942B1980E00895CF9338
:1032E000DF931F921F92CDB7DEB769831A8241E048
:1032F00050E0BE016F5F7F4F0E942B190F900F901F
:10330000DF91CF910895EF92FF920F931F93CF9388
:10331000DF9300D01F92CDB7DEB77C01862F4AE045
:1033200050E08E010F5F1F4FB80190E00E94B72B55
:10333000F80101900020E9F73197AF01401B510BD4
:10334000B801C7010E942B190F900F900F900F909A
:10335000DF91CF911F910F91FF90EF900895EF9221
:10336000FF920F931F93CF93DF93CDB7DEB72897CC
:103370000FB6F894DEBF0FBECDBF7C01CB014AE093
:1033800050E08E010F5F1F4FB8010E94B72BF8016C
:1033900001900020E9F73197AF01401B510BB801B4
:1033A000C7010E942B1928960FB6F894DEBF0FBEF6
:1033B000CDBFDF91CF911F910F91FF90EF900895B6
:1033C000EF92FF920F931F93CF93DF93CDB7DEB7AA
:1033D00027970FB6F894DEBF0FBECDBF7C01CB019F
:1033E0004AE050E08E010F5F1F4FB8010E94292C68
:1033F000F80101900020E9F73197AF01401B510B14
:10340000B801C7010E942B1927960FB6F894DEBFAA
:103410000FBECDBFDF91CF911F910F91FF90EF9025
:103420000895EF92FF920F931F93CF93DF93CDB741
:10343000DEB72E970FB6F894DEBF0FBECDBF7C016E
:10344000CB01BA012AE030E08E010F5F1F4FA801C7
:103450000E94CD2BF80101900020E9F73197AF01D0
:10346000401B510BB801C7010E942B192E960FB6B5
:10347000F894DEBF0FBECDBFDF91CF911F910F91AA
:10348000FF90EF900895EF92FF920F931F93CF93C9
:10349000DF93CDB7DEB72D970FB6F894DEBF0FBE22
:1034A000CDBF7C01CB01BA012AE030E08E010F5F75
:1034B0001F4FA8010E94FC2BF80101900020E9F7A2
:1034C0003197AF01401B510BB801C7010E942B1966
:1034D0002D960FB6F894DEBF0FBECDBFDF91CF9112
:1034E0001F910F91FF90EF900895EF92FF920F932D
:1034F0001F93CF93DF93CDB7DEB764970FB6F894E1
:10350000DEBF0FBECDBF7C01CB01BA018E010F5FC4
:103510001F4F22E044E00E944E28BC01FC010190B4
:103520000020E9F73197AF01481B590BC7010E94F2
:103530002B1964960FB6F894DEBF0FBECDBFDF9196
:10354000CF911F910F91FF90EF900895EF92FF920E
:103550000F931F93CF93DF93CDB7DEB764970FB66A
:10356000F894DEBF0FBECDBF7C01CB01BA018E0146
:103570000F5F1F4F22E044E00E944E28BC01FC0177
:1035800001900020E9F73197AF01481B590BC701A3
:103590000E942B1964960FB6F894DEBF0FBECDBF04
:1035A000DF91CF911F910F91FF90EF900895EF92CF
:1035B000FF920F931F93CF93DF936115710511F461
:1035C00080E01EC08B01EC01CB010E94292B0097EB
:1035D000B1F02C813D817C01E20EF31EB701CE01DA
:1035E0000E94FE16882361F3288139818C819D8198
:1035F000B801820F931F0E94222BFD82EC8281E092
:10360000DF91CF911F910F91FF90EF900895CF938D
:10361000DF93EC01FB0144815581608171810E943F
:103620002B19811103C0CE010E94D216CE01DF9169
:10363000CF910895CF93DF93EC016115710561F08F
:10364000FB0101900020E9F73197AF01461B570BB2
:103650000E942B19811103C0CE010E94D216CE0107
:10366000DF91CF910895CF93DF93EC010E946F1902
:10367000811103C0CE010E94D216CE01DF91CF91FD
:103680000895CF93DF93EC010E948319811103C049
:10369000CE010E94D216CE01DF91CF910895CF9333
:1036A000DF93EC010E94AF19811103C0CE010E948B
:1036B000D216CE01DF91CF910895CF93DF93EC0125
:1036C0000E94E019811103C0CE010E94D216CE01E2
:1036D000DF91CF910895CF93DF93EC010E94111AEF
:1036E000811103C0CE010E94D216CE01DF91CF918D
:1036F0000895CF93DF93EC010E94431A811103C018
:10370000CE010E94D216CE01DF91CF910895CF93C2
:10371000DF93EC010E94751A811103C0CE010E9453
:10372000D216CE01DF91CF910895CF93DF93EC01B4
:103730000E94A61A811103C0CE010E94D216CE01AA
:10374000DF91CF910895CF93DF93EC010E94D71AB8
:10375000811103C0CE010E94D216CE01DF91CF911C
:103760000895CF93DF93DC01ED91FC91EB01A881EB
:10377000B981309711F01097C9F4109759F0EB0107
:103780002C813D81232B31F08C9190E09195819596
:10379000910914C0309781F0DC0114968D919C91B1
:1037A0001597892B49F0808190E008C0BD01CF01B9
:1037B000DF91CF910C94652B80E090E0DF91CF9169
:1037C0000895FC0144815581FB0124813581421714
:1037D000530729F40E94B11B21E0892B09F020E056
:1037E000822F0895FC0124813581232B31F421E0BF
:1037F00061157105A1F0FB0108C0FC018081918178
:103800006115710531F421E0FC018081882339F0D4
:1038100005C00E94652B21E0892B09F020E0822F52
:1038200008950E94B11B892F881F8827881F08953B
:103830000E94B11B21E0181619060CF020E0822F1F
:1038400008950E94B11B21E0181619060CF420E01F
:10385000822F08950E94B11B892F8095881F882789
:10386000881F0895EF92FF920F931F93CF93DF93DA
:103870008617970729F1FC0124813581FB014481DA
:10388000558124173507F1F4232BD1F0DC01CD91BC
:10389000DC91008111818991882391F0082E000C20
:1038A000990B0E94122B7C01F80181918F01082E47
:1038B000000C990B0E94122BE816F90661F302C066
:1038C00081E001C080E0DF91CF911F910F91FF90C7
:1038D000EF900895DB011496ED91FC911597DC01B2
:1038E00014962D913C9115972E1B3F0B24173507ED
:1038F000A0F02D913C912115310579F0DB016D91FE
:103900007C916115710549F0CA01AF01820F931FC7
:103910000E94752B21E0892B09F020E0822F089569
:10392000FC0144815581FB012481358142175307F5
:1039300020F040E050E00C946A1C80E00895FC0107
:1039400024813581FB014481558124173507A0F07E
:10395000FC0180819181009779F0FB016081718188
:103960006115710549F0241B350B820F931F0E94CE
:10397000652B21E0892B09F020E0822F0895FC01BE
:10398000248135816217730730F480819181FC01B5
:10399000E60FF71F40830895FC01248135816217EB
:1039A000730720F480819181009729F41092180503
:1039B00088E195E00895860F971F0895FC01248102
:1039C00035816217730748F480819181009729F04F
:1039D000FC01E60FF71F8081089580E008950C94A4
:1039E000DE1C0F931F93CF93DF934115510519F1FF
:1039F0006115710501F1DC011496ED91FC911597AB
:103A00002E173F0718F0FB01108215C0E21BF30BC5
:103A1000EA012197EC17FD0708F4EF018B01FC0187
:103A200060817181620F731FAE01C8010E94832BF8
:103A3000C00FD11F1882DF91CF911F910F91089570
:103A4000CF93DF93FC01248135814217530778F42B
:103A5000C081D181062E000C770BCE01840F951FFB
:103A60000E945A2B009719F08C1B9D0B02C08FEF00
:103A70009FEFDF91CF91089540E050E00C94201D1E
:103A8000CF93DF93FC01248135814217530780F4E3
:103A9000FB01DC01CD91DC9160817181CE01840F4D
:103AA000951F0E949D2B009719F08C1B9D0B02C047
:103AB0008FEF9FEFDF91CF91089540E050E00C949D
:103AC000401DDF92EF92FF920F931F93CF93DF93EE
:103AD000DC0114962D913C9115974217530718F06D
:103AE0008FEF9FEF1DC08C01EA012196DC01ED9163
:103AF000FC911197EC0FFD1FD0801082ED90FC908F
:103B0000062E000C770BC7010E94922BCE0DDF1DF5
:103B1000D882009729F3F80120813181821B930B11
:103B2000DF91CF911F910F91FF90EF90DF9008955B
:103B3000FC0144815581415051090C94611DAF92A3
:103B4000BF92CF92DF92EF92FF920F931F93CF938A
:103B5000DF937B018A01FB014481558141155105A9
:103B600061F1FC01248135812115310531F12417E2
:103B7000350718F10217130718F0890101501109D0
:103B8000FC01A080B180C501DFEFCFEF6501C00E61
:103B9000D11EC816D906A0F0F701608171810E947C
:103BA0009D2B009769F09C012A193B090217130706
:103BB00010F0D22FC32F0196ECCF8FEF9FEF02C0F2
:103BC0008D2F9C2FDF91CF911F910F91FF90EF9040
:103BD000DF90CF90BF90AF900895FC014481558154
:103BE000FB0124813581421B530B0C949F1DBF9216
:103BF000CF92DF92EF92FF920F931F93CF93DF93B9
:103C00007C016B018A01E9012417350720F4812F1B
:103C10008901C42FD82F60E472E0C7010E943B17CE
:103C2000D60114968D919C91159708171907D0F419
:103C30008C179D0708F4EC01D601ED91FC911197CA
:103C4000EC0FFD1FB08010824D915C91BA01600FA6
:103C5000711FC7010E949117D601ED91FC91EC0FE5
:103C6000FD1FB082C701DF91CF911F910F91FF908F
:103C7000EF90DF90CF90BF900895DC01ED91FC9123
:103C8000309729F40895861301C0408331968081CE
:103C90008111F9CF08952F923F924F925F926F92C8
:103CA0007F928F929F92AF92BF92CF92DF92EF92CC
:103CB000FF920F931F93CF93DF93FC0144805580B5
:103CC0004114510409F4D2C0FB0164807580611471
:103CD000710409F4CBC07A016B018C01FA01A48054
:103CE000B580A618B708FC01C081D181A114B10428
:103CF000C1F4F60160817181CE010E949D2BEC011F
:103D0000892B09F4B3C0F701608171814481558129
:103D1000CE010E943F2BF70184819581C80FD91FE6
:103D2000E8CFB7FE02C04E0105C0FB012080318004
:103D3000420143C0F60160817181C4010E949D2B44
:103D40002C01892B21F1320168187908A301B401F3
:103D5000CE010E943F2BC60DD71DF70160817181F6
:103D600044815581CE010E943F2BF70184819581CA
:103D7000C80FD91FF60184809580840C951CF8012A
:103D8000848195818A0D9B1D95838483D3CFB40153
:103D9000CE01DF91CF911F910F91FF90EF90DF90B7
:103DA000CF90BF90AF909F908F907F906F905F90DB
:103DB0004F903F902F900C946E2BB101CE010E943A
:103DC0009D2B009731F0EC01C60DD71D8A0C9B1C72
:103DD000F4CF8414950409F449C0F80182819381D9
:103DE0008815990530F4B401C8010E94E4168823AF
:103DF000E9F1F801448155814150510957FD36C020
:103E0000B601C8010E949F1DEC0197FD2FC0F8016B
:103E100080819181F601248135812C0F3D1F820F15
:103E2000931FF80144815581421B530BBC018A0D3D
:103E30009B1D0E94482BF801848195818A0D9B1D52
:103E40009583848320813181F901E80FF91F108265
:103E5000F80180819181F7016081718144815581F0
:103E60008C0F9D1F0E943F2BAE01C6CFDF91CF91DB
:103E70001F910F91FF90EF90DF90CF90BF90AF9088
:103E80009F908F907F906F905F904F903F902F907A
:103E90000895CF93DF93DC011496ED91FC91159773
:103EA0006E177F0728F54115510511F19F01261B5B
:103EB000370B4217530708F49A01DB01EC018881A4
:103EC0009981E21BF30BFD83EC83AF01461B570B7B
:103ED000260F371FBC01620F731F8A0F9B1F0E94A2
:103EE000832BE881F9818C819D81E80FF91F108275
:103EF000DF91CF9108954FEF5FEF0C94491FCF935F
:103F0000DF93FC01C081D181209751F08881882303
:103F100039F0082E000C990B0E94122B8993F6CFD2
:103F2000DF91CF910895CF93DF93FC01C081D181C0
:103F3000209751F08881882339F0082E000C990BC6
:103F40000E941A2B8993F6CFDF91CF910895AF92FB
:103F5000BF92CF92DF92EF92FF920F931F93CF9376
:103F6000DF93DC01CD90DC901197C114D10409F4EA
:103F700042C01496CD91DC9115972097E1F18C0108
:103F800056017501BFEFAB1ABB0AF7018081082EFD
:103F9000000C990B0E940A2B892B99F72197CC0DC5
:103FA000DD1D8881082E000C990B0E940A2B892B9D
:103FB00091F4AE014F5F5F4F4E195F09D80115961E
:103FC0005C934E931497CE14DF0450F4B701C601EE
:103FD0000E943F2B05C0CE15DF0558F32197E1CF96
:103FE000D801ED91FC91119714968D919C911597A4
:103FF000E80FF91F1082DF91CF911F910F91FF9071
:10400000EF90DF90CF90BF90AF900895FC0180813A
:104010009181009711F00C94E32A60E070E0CB01ED
:104020000895FC0180819181009711F00C94DF2AA2
:1040300060E070E0CB0108950C9411200E94DA2A10
:104040000E94DA2A0C946F280C946F280C9407298C
:104050000C9407291F920F920FB60F9211242F93E1
:104060003F938F939F93AF93BF9380911905909146
:104070001A05A0911B05B0911C053091210523E084
:10408000230F2D3720F40196A11DB11D05C026E890
:10409000230F0296A11DB11D2093210580931905C0
:1040A00090931A05A0931B05B0931C0580911D05E4
:1040B00090911E05A0911F05B09120050196A11DAC
:1040C000B11D80931D0590931E05A0931F05B0930D
:1040D0002005BF91AF919F918F913F912F910F90AC
:1040E0000FBE0F901F9018952FB7F8946091190587
:1040F00070911A0580911B0590911C052FBF0895A2
:104100003FB7F89480911D0590911E05A0911F0561
:10411000B091200526B5A89B02C02F3F99F43FBF60
:10412000BA2FA92F982F8827820F911DA11DB11D8D
:10413000BC01CD0142E0660F771F881F991F4A9589
:10414000D1F708950196A11DB11DE9CF8F929F92DD
:10415000AF92BF92CF92DF92EF92FF926B017C0100
:104160000E9480204B015C01C114D104E104F104E0
:10417000F1F00E948020DC01CB0188199909AA097D
:10418000BB09883E9340A105B10570F381E0C81AD0
:10419000D108E108F10828EE820E23E0921EA11C4E
:1041A000B11CC114D104E104F104F1F2E2CFFF909B
:1041B000EF90DF90CF90BF90AF909F908F90089539
:1041C0008230910538F0880F991F880F991F059745
:1041D0000197F1F70895789484B5826084BD84B521
:1041E000816084BD85B5826085BD85B5816085BDF2
:1041F000EEE6F0E0808181608083E1E8F0E010820B
:10420000808182608083808181608083E0E8F0E04B
:10421000808181608083E1EBF0E080818460808335
:10422000E0EBF0E0808181608083E1E9F0E0808173
:1042300082608083808181608083E0E9F0E080811A
:1042400081608083E1EAF0E0808182608083808108
:1042500081608083E0EAF0E0808181608083E1E238
:10426000F1E0808182608083808181608083E0E2F0
:10427000F1E0808181608083EAE7F0E08081846002
:10428000808380818260808380818160808380815F
:10429000806880831092C100089580931102089570
:1042A000863308F0865390917B00282F2870977FE3
:1042B000922B90937B0087702091110290E4299FAC
:1042C00090011124822B80937C0080917A0080647D
:1042D00080937A0080917A0086FDFCCF80917800EF
:1042E0002091790090E0922B08951F93CF93DF9354
:1042F000182FEB0161E00E949422209711F460E0F6
:1043000004C0CF3FD10539F461E0812FDF91CF9117
:104310001F910C94D022E12FF0E0E75AFD4FE49179
:104320004E2F50E0FA013197E231F10508F09DC0BF
:104330008827E058FF4F8F4F0C94102684B5806873
:1043400084BDC7BD97C084B5806284BDC8BD92C01E
:1043500080918000806880938000D0938900C09312
:10436000880088C080918000806280938000D09314
:104370008B00C0938A007EC080918000886080930B
:104380008000D0938D00C0938C0074C08091B000E9
:1043900080688093B000C093B3006CC08091B0007F
:1043A00080628093B000C093B40064C0809190009C
:1043B000806880939000D0939900C09398005AC071
:1043C00080919000806280939000D0939B00C09376
:1043D0009A0050C080919000886080939000D093A4
:1043E0009D00C0939C0046C08091A000806880938F
:1043F000A0008091A0008F7B8093A000D093A900A3
:10440000C093A80037C08091A00080628093A00074
:10441000D093AB00C093AA002DC08091A00088600B
:104420008093A000D093AD00C093AC0023C08091D6
:104430002001806880932001D0932901C093280136
:1044400019C080912001806280932001D0932B01BC
:10445000C0932A010FC080912001886080932001C1
:10446000D0932D01C0932C0105C0C038D1050CF0AC
:104470004BCF45CFDF91CF911F91089590E0FC0184
:104480003197E231F10508F04EC08827EE56FF4F14
:104490008F4F0C941026809180008F7703C08091FD
:1044A00080008F7D80938000089580918000877FB9
:1044B000F9CF84B58F7702C084B58F7D84BD089510
:1044C0008091B0008F7703C08091B0008F7D809382
:1044D000B0000895809190008F7707C08091900080
:1044E0008F7D03C080919000877F80939000089516
:1044F0008091A0008F7707C08091A0008F7D03C0BE
:104500008091A000877F8093A00008958091200172
:104510008F7707C0809120018F7D03C0809120019B
:10452000877F809320010895CF93DF9390E0FC0173
:10453000E156FD4F2491FC01EB51FD4F84918823FE
:1045400061F190E0880F991FFC01E15AFC4FC59181
:10455000D491FC01EB5BFC4FA591B491611109C0B2
:104560009FB7F8948881209582238883EC912E232D
:104570000BC0623061F49FB7F8943881822F809528
:1045800083238883EC912E2B2C939FBF06C08FB77B
:10459000F894E8812E2B28838FBFDF91CF91089567
:1045A0001F93CF93DF93282F30E0F901E75AFD4F97
:1045B0008491F901E156FD4FD491F901EB51FD4F82
:1045C000C491CC23C9F0162F81110E943E22EC2FFA
:1045D000F0E0EE0FFF1FEB5BFC4FA591B4918FB79E
:1045E000F894111105C09C91ED2FE095E92302C0CC
:1045F000EC91ED2BEC938FBFDF91CF911F9108953C
:10460000CF93DF93282F30E0F901E75AFD4F8491D3
:10461000F901E156FD4FD491F901EB51FD4FC491E1
:10462000CC2391F081110E943E22EC2FF0E0EE0F9E
:10463000FF1FE55DFC4FA591B491EC91ED2381E066
:1046400090E021F480E002C080E090E0DF91CF9123
:1046500008950F931F9390E0FC01E156FD4F749174
:10466000FC01EB51FD4FE491662311F0672F01C06F
:1046700060E0F0E0EE0FFF1FE55DFC4F8591949147
:1046800089019A013F70462F672F0E94E023611530
:1046900071058105910549F0DC01CB010196A11D51
:1046A000B11DBC01CD019F7003C060E070E0CB0183
:1046B0001F910F9108954F925F926F927F928F9208
:1046C0009F92AF92BF92CF92DF92EF92FF920F93A1
:1046D0001F93CF93DF9369017A0190E0FC01E156CB
:1046E000FD4F1491FC01EB51FD4FC491662311F075
:1046F000012F01C000E00E9480204B015C01D0E04E
:10470000CC0FDD1FC55DDC4FFE01A591B4918C91EE
:10471000812380131EC00E948020DC01CB018819F8
:104720009909AA09BB09C816D906EA06FB0660F76B
:1047300060E070E0CB0133C00E948020DC01CB013F
:1047400088199909AA09BB09C816D906EA06FB0601
:1047500078F3FE01A591B4918C9181238013ECCF65
:104760000E9480202B013C01FE01A591B4918C9107
:10477000812380130EC00E948020DC01CB018819A8
:104780009909AA09BB09C816D906EA06FB0660F70B
:10479000CFCF0E9480206419750986099709DF919F
:1047A000CF911F910F91FF90EF90DF90CF90BF902E
:1047B000AF909F908F907F906F905F904F900895F3
:1047C000CF92DF92EF92FF920F931F93E82FF92F72
:1047D00005C0015011092109310961F19081962329
:1047E0009417B9F305C0015011092109310911F1DC
:1047F000908196239413F7CFC12CD12CE12CF12C6E
:104800000AC08FEFC81AD80AE80AF80A0C151D0565
:104810002E053F0579F080818623841791F36C2D56
:104820007D2D8E2D9F2D1F910F91FF90EF90DF908A
:10483000CF90089560E070E080E090E01F910F91CC
:10484000FF90EF90DF90CF900895AF92BF92DF92EC
:10485000EF92FF920F931F93CF93DF93E82EF62EE4
:10486000D42E07E010E0C0E087E0A82EB12C61E074
:104870008F2D0E94D0228E2DD1100AC00E940023BD
:104880009501201B310B01C0880F2A95EAF707C05C
:104890000E940023002E01C0880F0A94EAF7C82B5B
:1048A00060E08F2D0E94D0220150110900F78C2F5B
:1048B000DF91CF911F910F91FF90EF90DF90BF900C
:1048C000AF900895BF92CF92DF92EF92FF920F9335
:1048D0001F93CF93DF93C82ED62EB42EC7E0D0E01F
:1048E000022F10E087E0E82EF12CB11005C0C701BF
:1048F0008C1B9D0B980102C098018C2F02C035952E
:1049000027958A95E2F7B901617077278C2D0E946F
:10491000D02261E08D2D0E94D02260E08D2D0E947A
:10492000D022219710F7DF91CF911F910F91FF9027
:10493000EF90DF90CF90BF90089520E042E060E1DB
:1049400086E592E00E94F60786E592E00E94C6079F
:104950001092900010929100809191008860809355
:1049600091008091910084608093910081E792E0B2
:104970009093990080939800809171008260809359
:10498000710010929500109294007894FFCFCF920E
:10499000EF920F9387E0C82E96E0E92E05E024E021
:1049A00049E068E086E592E00E9442090F91EF90AD
:1049B000CF900895E4E7F2E01382128288EE93E04C
:1049C000A0E0B0E084839583A683B78384E292E07D
:1049D0009183808385EC90E09587848784EC90E0D8
:1049E0009787868780EC90E0918B808B81EC90E0BC
:1049F000938B828B82EC90E0958B848B86EC90E09D
:104A0000978B868B118E128E138E148E0895E1E192
:104A1000F3E01382128288EE93E0A0E0B0E084839A
:104A20009583A683B78384E292E0918380838DECA3
:104A300090E0958784878CEC90E09787868788EC58
:104A400090E0918B808B89EC90E0938B828B8AEC49
:104A500090E0958B848B8EEC90E0978B868B118EFB
:104A6000128E138E148E0895EEEAF3E013821282F2
:104A700088EE93E0A0E0B0E084839583A683B783BB
:104A800084E292E09183808385ED90E0958784872E
:104A900084ED90E09787868780ED90E0918B808B06
:104AA00081ED90E0938B828B82ED90E0958B848BEF
:104AB00086ED90E0978B868B118E128E138E148E5E
:104AC0000895EBE4F4E01382128288EE93E0A0E014
:104AD000B0E084839583A683B78384E292E09183D8
:104AE000808385E391E09587848784E391E09787CD
:104AF000868780E391E0918B808B81E391E0938BBB
:104B0000828B82E391E0958B848B86E391E0978B97
:104B1000868B118E128E138E148E0895E8EEF4E0BB
:104B200084E392E09183808312821382148215823F
:104B3000089540E00C949D0741E00E949D0781E0AC
:104B400090E008956115710579F0FB010190002056
:104B5000E9F73197AF01461B570BDC01ED91FC9152
:104B60000280F381E02D199480E090E008950C9488
:104B7000B72B0C94CD2B0C94292C0C94FC2BDB0123
:104B80008F939F930E941626BF91AF91A29F800D95
:104B9000911DA39F900DB29F900D11240895A1E245
:104BA0001A2EAA1BBB1BFD010DC0AA1FBB1FEE1FA7
:104BB000FF1FA217B307E407F50720F0A21BB30BF2
:104BC000E40BF50B661F771F881F991F1A9469F76E
:104BD00060957095809590959B01AC01BD01CF01CA
:104BE0000895052E97FB1EF400940E94082657FD99
:104BF00007D00E94CF2507FC03D04EF40C94082662
:104C000050954095309521953F4F4F4F5F4F0895F8
:104C100090958095709561957F4F8F4F9F4F089528
:104C2000EE0FFF1F0590F491E02D19940E942526A8
:104C3000A59F900DB49F900DA49F800D911D1124F0
:104C400008950790F691E02D1994A29FB001B39FAB
:104C5000C001A39F700D811D1124911DB29F700D85
:104C6000811D1124911D08955058BB27AA270ED0ED
:104C700070C161D130F066D120F031F49F3F11F462
:104C80001EF456C10EF4E095E7FB4CC1E92F72D13A
:104C900080F3BA17620773078407950718F071F459
:104CA0009EF58AC10EF4E0950B2EBA2FA02D0B01B4
:104CB000B90190010C01CA01A0011124FF27591B61
:104CC00099F0593F50F4503E68F11A16F040A22F67
:104CD000232F342F4427585FF3CF469537952795D8
:104CE000A795F0405395C9F77EF41F16BA0B620BD7
:104CF000730B840BBAF09150A1F0FF0FBB1F661F1E
:104D0000771F881FC2F70EC0BA0F621F731F841F60
:104D100048F4879577956795B795F7959E3F08F086
:104D2000B3CF9395880F08F09927EE0F9795879545
:104D30000895D4D008F481E008950CD00AC102D1BE
:104D400040F0F9D030F021F45F3F19F0EBC0511181
:104D500034C1EEC00FD198F39923C9F35523B1F3B1
:104D6000951B550BBB27AA2762177307840738F0DA
:104D70009F5F5F4F220F331F441FAA1FA9F333D039
:104D80000E2E3AF0E0E830D091505040E695001CED
:104D9000CAF729D0FE2F27D0660F771F881FBB1FA9
:104DA000261737074807AB07B0E809F0BB0B802D83
:104DB000BF01FF2793585F4F2AF09E3F510568F0CF
:104DC000B1C0FBC05F3FECF3983EDCF3869577956E
:104DD0006795B795F7959F5FC9F7880F911D9695D1
:104DE000879597F90895E1E0660F771F881FBB1F2D
:104DF000621773078407BA0720F0621B730B840BDA
:104E0000BA0BEE1F88F7E0950895BCD088F09F5745
:104E100090F0B92F9927B751A0F0D1F0660F771F06
:104E2000881F991F1AF0BA95C9F712C0B13081F0E6
:104E3000C3D0B1E00895C0C0672F782F8827B85F2E
:104E400039F0B93FCCF3869577956795B395D9F747
:104E50003EF490958095709561957F4F8F4F9F4F51
:104E60000895E89409C097FB3EF49095809570955D
:104E700061957F4F8F4F9F4F9923A9F0F92F96E9A6
:104E8000BB279395F695879577956795B795F1111B
:104E9000F8CFFAF4BB0F11F460FF1BC06F5F7F4FB8
:104EA0008F4F9F4F16C0882311F096E911C07723CA
:104EB00021F09EE8872F762F05C0662371F096E8D3
:104EC000862F70E060E02AF09A95660F771F881FA2
:104ED000DAF7880F9695879597F90895990F000846
:104EE000550FAA0BE0E8FEEF16161706E807F907BC
:104EF000C0F012161306E407F50798F0621B730B57
:104F0000840B950B39F40A2661F0232B242B252BD7
:104F100021F408950A2609F4A140A6958FEF811D7A
:104F2000811D089597F99F6780E870E060E008951B
:104F30009FEF80EC089500240A94161617061806B1
:104F40000906089500240A9412161306140605068D
:104F50000895092E0394000C11F4882352F0BB0F1E
:104F600040F4BF2B11F460FF04C06F5F7F4F8F4F81
:104F70009F4F089557FD9058440F551F59F05F3FBC
:104F800071F04795880F97FB991F61F09F3F79F06B
:104F900087950895121613061406551FF2CF4695ED
:104FA000F1DF08C0161617061806991FF1CF86956F
:104FB0007105610508940895E894BB276627772753
:104FC000CB0197F908958ADF08F48FEF08950BD08D
:104FD000C0CFB1DF28F0B6DF18F0952309F0A2CFDB
:104FE000A7CF1124EACFC6DFA0F3959FD1F3950F89
:104FF00050E0551F629FF001729FBB27F00DB11D5D
:10500000639FAA27F00DB11DAA1F649F6627B00DEC
:10501000A11D661F829F2227B00DA11D621F739FD5
:10502000B00DA11D621F839FA00D611D221F749FE3
:105030003327A00D611D231F849F600D211D822F2A
:10504000762F6A2F11249F5750408AF0E1F0882371
:105050004AF0EE0FFF1FBB1F661F771F881F91507E
:105060005040A9F79E3F510570F05CCFA6CF5F3F3F
:10507000ECF3983EDCF3869577956795B795F795B1
:10508000E7959F5FC1F7FE2B880F911D9695879539
:1050900097F9089523DF880B990B0895EF920F93EA
:1050A0001F93CF93DF93E80147FF02C034E101C0B3
:1050B00034E0E42FFF27E7FDF095F7FF03C0F195FB
:1050C000E195F109E32E022F2E2FAE010E944E2C06
:1050D000CE01DF91CF911F910F91EF900895CF9363
:1050E000DF938230910510F482E090E0E091240596
:1050F000F091250520E030E0A0E0B0E0309739F1F4
:105100004081518148175907B8F04817590771F481
:1051100082819381109729F013969C938E93129716
:105120002CC0909325058093240527C021153105B7
:1051300031F04217530718F0A901DB0101C0EF015C
:105140009A01BD01DF010280F381E02DD7CF211547
:105150003105F9F0281B390B2430310580F48A81A0
:105160009B816115710521F0FB019383828304C04B
:105170009093250580932405FE01329644C0FE01DC
:10518000E20FF31F819391932250310939832883D1
:105190003AC02091220530912305232B41F4209120
:1051A000140230911502309323052093220520919B
:1051B0001202309113022115310541F42DB73EB78B
:1051C0004091160250911702241B350BE0912205E5
:1051D000F0912305E217F307A0F42E1B3F0B2817CD
:1051E000390778F0AC014E5F5F4F2417350748F060
:1051F0004E0F5F1F50932305409322058193919397
:1052000002C0E0E0F0E0CF01DF91CF910895CF93AD
:10521000DF93009709F487C0FC0132971382128252
:10522000C0912405D0912505209781F420813181FA
:10523000280F391F8091220590912305821793072B
:1052400079F5F0932305E09322056DC0DE0120E09F
:1052500030E0AE17BF0750F412964D915C91139752
:105260009D014115510509F1DA01F3CFB383A28302
:1052700040815181840F951F8A179B0771F48D918E
:105280009C911197840F951F0296918380831296AB
:105290008D919C911397938382832115310529F475
:1052A000F0932505E09324053EC0D9011396FC93A5
:1052B000EE9312974D915D91A40FB51FEA17FB076E
:1052C00079F480819181840F951F0296D9011196FE
:1052D0009C938E938281938113969C938E931297C5
:1052E000E0E0F0E08A819B81009719F0FE01EC017B
:1052F000F9CFCE01029628813981820F931F209128
:105300002205309123052817390769F4309729F4CD
:10531000109225051092240502C013821282D093A8
:105320002305C0932205DF91CF9108958F929F921C
:10533000AF92BF92CF92DF92EF92FF92CF93DF9323
:10534000EC01688179818A819B81611571058105F4
:10535000910521F464E279ED8BE597E02DE133EFDF
:1053600041E050E00E94F12549015A019B01AC0146
:10537000A7EAB1E40E9416266B017C01ACEEB4EF03
:10538000A50194010E944330C60ED71EE81EF91EE7
:10539000F7FE06C081E0C81AD108E10880E8F80AE3
:1053A000C882D982EA82FB82C701B6019F77DF916A
:1053B000CF91FF90EF90DF90CF90BF90AF909F90F4
:1053C0008F9008950C94962988E192E00C94962988
:1053D000609318027093190280931A0290931B0233
:1053E00008956F927F928F929F92AF92BF92CF92C9
:1053F000DF92EF92FF920F931F93CF93DF93EC0115
:10540000CB01209781F4DF91CF911F910F91FF90F5
:10541000EF90DF90CF90BF90AF909F908F907F9054
:105420006F900C946F28FE01E60FF71F9E0122502B
:105430003109E217F30708F4ACC0D9010D911C91B2
:10544000119706171707B8F00530110508F49FC02B
:10545000A801445051094617570708F498C0025054
:105460001109061B170B019311936D937C93CF01C8
:105470000E9407298CC05B01A01AB10A4E01800E60
:10548000911EA0912405B0912505612C712C60E03E
:1054900070E0109709F449C0A815B905C9F5ED9059
:1054A000FC901197670142E0C40ED11CCA14DB04C2
:1054B00078F147018A189B08640142E0C40ED11CB0
:1054C0001296BC9012971396AC91B5E0CB16D1040E
:1054D00040F0B282A38391828082D9018D939C9304
:1054E00009C00E5F1F4F0E0D1F1DF90111830083B0
:1054F000EB2DFA2F6115710531F0DB011396FC934A
:10550000EE93129744C0F0932505E09324053FC025
:105510006D917C9111976616770608F43B01BD01E9
:1055200012960D90BC91A02DB4CF60912205709180
:10553000230568157905E9F468167906D0F44091D9
:105540001202509113024115510541F44DB75EB757
:105550006091160270911702461B570BE417F5076E
:10556000C0F4F0932305E0932205F9019183808331
:105570000EC00E946F287C01009759F0A801BE015F
:105580000E943F2BCE010E940729C70104C0CE0113
:1055900002C080E090E0DF91CF911F910F91FF90CA
:1055A000EF90DF90CF90BF90AF909F908F907F90C3
:1055B0006F90089581E090E0F8940C94483066274D
:1055C00077270C94CC2D1F93FC0199278827BC01C9
:1055D000E89411911032E9F3193010F01E30C8F33D
:1055E0001B3251F01D3249F4689406C00E94E72B2B
:1055F000610F711D811D911D119110531A30B0F36F
:105600003EF490958095709561957F4F8F4F9F4F99
:105610001F910895911109C5803219F08950855064
:10562000D0F708959111089581548A5108F4805E4D
:10563000855A08959111089581568A5108F480522F
:1056400085580895FB01DC0105900D920020E1F7DB
:105650000895FC0105900020E9F7809590958E0F44
:105660009F1F0895FB01DC0104C08D9101908019FA
:1056700021F441505040C8F7881B990B0895FB0155
:10568000DC0102C001900D9241505040D8F70895BE
:105690006817790768F4FB01DC01E40FF51FA40F1C
:1056A000B51F02C002900E9241505040D8F70895A5
:1056B0000C943F2BFC018191861721F08823D9F7A8
:1056C000992708953197CF010895FB01DC018D9151
:1056D000019080190110D9F3990B0895FB01DC01A9
:1056E00001900D920020E1F70895FB01DC0141508B
:1056F000504030F08D910190801919F40020B9F7D5
:10570000881B990B0895FB01DC014150504048F083
:1057100001900D920020C9F701C01D9241505040E8
:10572000E0F70895FC0181E090E00190061609F48D
:10573000CF010020D1F701970895FB015191552326
:10574000A9F0BF01DC014D9145174111E1F759F472
:10575000CD010190002049F04D9140154111C9F350
:10576000FB014111EFCF81E090E0019708954532B0
:10577000510520F4423010F00C94C22BFB01108232
:10578000CB010895BB274A3031F4992322F4BDE2BE
:10579000909581959F4F0C94352C2532310520F43E
:1057A000223010F00C94D82BFA011082CA0108950F
:1057B000BB272A3051F4992342F4BDE2909580959D
:1057C000709561957F4F8F4F9F4F0C94082C592FE8
:1057D000482F372F262F660F771F881F991F660FB8
:1057E000771F881F991F620F731F841F951F660FF5
:1057F000771F881F991F08952532310520F4223024
:1058000010F00C94072CFA011082CA010895BB27EE
:10581000FA01A62F6217710581059105330B30FB44
:1058200066F0AA27660F771F881F991FAA1FA21765
:1058300010F0A21B63953850A9F7A05DAA3308F0B9
:10584000A95DA19336F7B111B1931082CA010C94EE
:1058500030304532510520F4423010F00C94342C95
:10586000FB011082CB010895BB27FB015527AA2716
:10587000880F991FAA1FA41710F0A41B83955051DD
:10588000B9F7A05DAA3308F0A95DA193009779F755
:10589000B111B1931192CB010C9430306F927F9281
:1058A0009F92AF92BF92CF92DF92EF92FF920F93AF
:1058B0001F93CF93DF93CDB7DEB729970FB6F89438
:1058C000DEBF0FBECDBF6A01B22E102F0C3320F405
:1058D000FF24F394F00E02C04CE3F42E0F2D27E0CA
:1058E000AE014F5F5F4F0E943D2F7981272F2970B6
:1058F000213031F0E1FC06C0E0FC06C060E005C0EC
:105900006DE203C06BE201C060E2AE2DA07173FFD7
:1059100036C0662311F084E001C083E08B1510F4DB
:10592000B81A01C0B12CA1110BC0F6018B2D90E269
:10593000882319F091938150FBCFCB0CD11CB12C53
:10594000662331F0F601608396012F5F3F4F6901B6
:10595000C6010396E2FE05C02EE4F601208331E481
:1059600004C02EE6F601208331E631832283FC0158
:105970002B2D30E22223F1F131932150FBCF72FF26
:1059800040C0662311F084E001C083E08B1510F461
:10599000B81A01C0B12CA1110BC0F6018B2D90E2F9
:1059A000882319F091938150FBCFCB0CD11CB12CE3
:1059B000662331F0F601608396012F5F3F4F690146
:1059C000C6010396E2FE07C029E4F60120832EE417
:1059D000218326E406C029E6F60120832EE62183F2
:1059E00026E62283FC012B2D30E2222319F031938D
:1059F0002150FBCFFC01EB0DF11D10828EEF9FEFCC
:105A0000B7C0B1E0611101C0B0E04B2F50E01816F3
:105A1000190624F49C012F5F3F4F02C021E030E0C3
:105A2000240F351F112329F0412F50E04F5F5F4FA6
:105A300002C040E050E0420F531F2B2D30E04217D0
:105A4000530714F4B41A01C0B12C2E2D287159F447
:105A5000F6012B2D30E2222319F031932150FBCF98
:105A6000CB0CD11CB12CBB2331F0F6016083960125
:105A70002F5F3F4F6901A1110BC0F6012B2D30E3C1
:105A8000222319F031932150FBCFCB0CD11CB12C28
:105A9000F80E0A81372F3071A32E74FF03C0013333
:105AA00009F4FA941F142CF42F2D293018F028E053
:105AB00001C021E0682F392F97FF02C060E030E07D
:105AC000462F532F612C712C3EE2932EBC01621B9A
:105AD00071099B01DC01A41BB50BE1E0F0E0EC0FC8
